:020000040800F2
:100000003019012061020008BB040008B304000895
:10001000B704000863030008250A00080000000078
:10002000000000000000000000000000A101000826
:100030006703000800000000FD01000885070008B4
:100040007B0200087B0200087B0200087B0200089C
:100050007B0200087B0200087B0200087B0200088C
:100060007B0200087B0200087B0200087B0200087C
:100070007B0200087B0200087B0200087B0200086C
:100080007B0200087B0200087B0200087B0200085C
:100090007B0200087B0200087B0200087B0200084C
:1000A0007B020008FD0700087B0200087B020008B5
:1000B000290800087B0200087B0200087B02000878
:1000C0007B0200087B0200087B0200087B0200081C
:1000D0007B0200087B0200086D0800087B02000814
:1000E0007B0200087B0200087B0200087B020008FC
:1000F0007B0200087B0200087B0200087B020008EC
:100100007B0200087B0200087B0200087B020008DB
:100110007B0200087B0200087B0200087B020008CB
:100120007B0200087B0200087B0200087B020008BB
:100130007B020008A90300087B0200087B0200087C
:100140007B0200087B0200087B0200087B0200089B
:100150007B0200087B0200087B0200087B0200088B
:100160007B0200087B0200087B0200087B0200087B
:100170007B0200087B0200087B0200087B0200086B
:100180007B0200087B020008DFF810D000F0ACF81A
:100190000048004719130008AFF300803019012010
:1001A0002C4B19680868B0E8F04F80F30988BFF35A
:1001B0006F8F4FF0000080F311887047000000003F
:1001C00008480068006880F308884FF0000080F35A
:1001D000148862B661B6BFF34F8FBFF36F8F00DF35
:1001E00000BF00BF08ED00E0DFF80C00016841F43B
:1001F00070010160704700BF88ED00E0EFF30980F7
:10020000BFF36F8F134B1A681EF0100F08BF20ED5D
:10021000108A20E9F04F106009B44FF0A00080F37D
:100220001188BFF34F8FBFF36F8F02F093FB4FF036
:10023000000080F3118809BC19680868B0E8F04F25
:100240001EF0100F08BFB0EC108A80F30988BFF3CE
:100250006F8F704750010020EFF30580704700005A
:100260000648804706480047FEE7FEE7FEE7FEE750
:10027000FEE7FEE7FEE7FEE7FEE7FEE7950700087C
:100280008901000810B5431A934209D283188818CF
:1002900003E010F8011D03F8011D521EF9D210BD34
:1002A00040EA01039B0703D009E008C9121F08C0F8
:1002B000042AFAD203E011F8013B00F8013B521E78
:1002C000F9D210BDD2B201E000F8012B491EFBD2D9
:1002D00070470022F6E710B513460A460446194651
:1002E000FFF7F0FF204610BD064C074D06E0E06822
:1002F00040F0010394E8070098471034AC42F6D36D
:10030000FFF746FF9C330008BC33000870B58C181B
:1003100010F8015B15F0070301D110F8013B2A1119
:1003200006D110F8012B03E010F8016B01F8016B06
:100330005B1EF9D12B0705D40023521E0DD401F802
:10034000013BFAE710F8013BCB1A921C03E013F8CB
:10035000015B01F8015B521EF9D5A142D8D3002000
:1003600070BD00BFFEE7704701494861704700005B
:100370000090024001460868C0F30D40704700B588
:1003800002460023106800F0004058B9106800F4DD
:10039000004038B9106800F4807018B11046FFF7BB
:1003A000E9FF0346184600BD10B501E000F0ACFFC0
:1003B00006480068FFF7E3FF0028F7D14020FFF769
:1003C000D3FF4FF48030FFF7CFFF10BDB8010020FE
:1003D000F0B50A4600210023002400BF3DE00125BE
:1003E00005FA01F3156805EA03049C4234D1056857
:1003F0004F000326BE40B543056015794E00B54059
:100400000668354305601579012D02D01579022D56
:1004100016D185684F000326BE40B54385605579E7
:100420004E00B540866835438560456801268E409C
:10043000B5434560456896798E40B6B23543456010
:10044000C5684F000326BE40B543C560D5794E0050
:10045000B540C6683543C560491C1029BFD3F0BDFF
:10046000F0B5002300244D07ED0E02FA05F3CE107F
:1004700000F1200555F826504E07F70E0F26BE4016
:10048000B543CF1000F1200646F82750CE1000F1FA
:10049000200555F8265045EA0304CE1000F120054A
:1004A00045F82640F0BD8161704742694A4042618B
:1004B000704700BFFEE700BFFEE7704770B5002140
:1004C00000230F22C4781CB3174C246804F4E064A2
:1004D000C4F5E064C4F30721C1F10404E3B20A41A6
:1004E00044789C40E1B28478144021430C07210EEB
:1004F0000E4C05786155047804F01F050124AC40CA
:1005000005786D11AD0005F1E025C5F8004109E061
:10051000047804F01F050124AC40054D06787611DF
:1005200045F8264070BD00000CED00E000E400E05E
:1005300080E100E002490143024A11607047000077
:100540000000FA050CED00E029B1064A12680243EA
:10055000044B1A6004E0034A12688243014B1A609C
:10056000704700003038024029B1064A1268024341
:10057000044B1A6004E0034A12688243014B1A607C
:100580007047000040380240F0B5002100220024EE
:10059000022500260223324F3F6807F00C0121B1EB
:1005A000042905D0082937D105E02E4F076036E031
:1005B0002D4F076033E02A4F3F1F3F68C7F3805637
:1005C000274F3F1F3F6807F03F036EB1264FB7FB31
:1005D000F3F7DFF88CC0ACF1040CDCF800C0CCF30E
:1005E000881C07FB0CF40CE01E4FB7FBF3F7DFF899
:1005F00070C0ACF1040CDCF800C0CCF3881C07FB25
:100600000CF4174F3F1F3F68C7F301477F1C7D0065
:10061000B4FBF5F7076002E0124F076000BF00BFB0
:100620000F4F3F6807F0F0010909104F7A5C076827
:10063000D74047600A4F3F6807F4E051890A0B4FE3
:100640007A5C4768D7408760054F3F6807F4604190
:10065000490B064F7A5C4768D740C760F0BD000081
:10066000083802400024F40040787D01A4010020F5
:100670000CB50020019000903448006840F48030B0
:100680003249086000BF3148006800F40030009033
:100690000198401C0190009818B90198B0F5A04F3E
:1006A000F1D12A48006800F4003010B10120009018
:1006B00001E0002000900098012846D123484030F6
:1006C000006840F0805021494031086020480068AF
:1006D00040F440401E4908601C48083000681B492F
:1006E000083108600846006840F400400860084689
:1006F000006840F4A05008601648091F0860081FF1
:10070000006840F08070091F086000BF0F48006853
:1007100000F000700028F9D040F205700E49086022
:100720000A480830006820F00300084908310860D2
:100730000846006840F00200086000BF0348083027
:10074000006800F00C000828F8D10CBD0038024009
:100750000070004019544007003C0240042808D1B2
:100760004FF0E021096941F004014FF0E0221161EE
:1007700007E04FF0E021096921F004014FF0E02289
:100780001161704710B502F0F5FA012801D002F0AE
:100790007BF910BD10B51548006840F4700013498E
:1007A00008601348006840F001001149086000200B
:1007B0000F49083108600E4800680E4908400C498E
:1007C00008600D48091D0860081F006820F480209B
:1007D000091F0860002006490C310860FFF748FF38
:1007E0004FF0006001498039086010BD88ED00E0DD
:1007F00000380240FFFFF6FE1030002410B5012142
:10080000074800F022F8012808D106480068401C7B
:10081000044908600121024800F014F810BD0000EE
:10082000000001400001002010B50121880700F000
:100830000CF8012805D101F05BFD0121880700F0CB
:1008400001F810BDCA430282704730B5024600204D
:1008500000230024158A05EA0103958905EA0104AD
:1008600013B10CB1012000E0002030BD10B540F202
:100870002551134800F041F830B101F029FD40F254
:1008800025510F4800F01EF84FF458710C4800F045
:1008900034F830B101F01CFD4FF45871084800F0F5
:1008A00011F840F22661064800F027F830B101F057
:1008B00017FD40F22661024800F004F810BD000068
:1008C0000044004010B50022002340F66A14A14203
:1008D00000D100BF0A1201249440A3B2DC4304807B
:1008E00010BD21B1828942F40052828104E08289E4
:1008F0004DF6FF731A408281704770B5024600249E
:1009000000230025002040F66A16B14200D100BF46
:10091000C1F3421501F01F03012606FA03F3012D6E
:1009200002D19689334006E0022D02D1168A334067
:1009300001E0968A33400C12012606FA04F4168868
:10094000344013B10CB1012000E0002070BD000064
:100950002DE9FF4705460E460024A14600BFA046EC
:10096000B08900B100BF2C8A24F44054F0880443BD
:100970002C82AC8941F20C608443B08831890843F1
:10098000718908430443AC81AC8A24F44074B08973
:100990000443AC826846FFF7F7FD2048854202D049
:1009A0001F48854202D1DDF80C9001E0DDF8089087
:1009B000A88900F4004040B109EBC90000EB091020
:1009C00031684900B0FBF1F707E009EBC90000EB23
:1009D000091031688900B0FBF1F76420B7FBF0F033
:1009E00004012009642101FB1078A88900F400406B
:1009F00040B1322000EBC800B0FBF1F000F007007E
:100A0000044308E0322000EB08106421B0FBF1F051
:100A100000F00F0004432C81BDE8FF870010014067
:100A20000014014000BFFEE702E008C8121F08C121
:100A3000002AFAD170477047002001E001C1121F5F
:100A4000002AFBD17047000070B504460420FFF770
:100A500085FE0C48047025464FF47A70454301200A
:100A6000094908804FF0E020006940F002004FF093
:100A7000E021086108464561006940F00100086115
:100A800070BD00000C0000200E00002010B50A46CA
:100A900000BF00BF114643681B895B1E4468238169
:100AA00003691B680B600369196010BD0146086982
:100AB0000268AAB110680B69186000BF00BF4868DF
:100AC0000089401C4B681881486800894B685B8925
:100AD000984203DD486800894B685881104670478A
:100AE00048688088401C4B6898800020F7E72DE913
:100AF000F05F06460D464FF0000B2888052848D1C8
:100B000070784FEA0029B07840EA090909F101003C
:100B10001FFA80F9F078040230790443012C35DBA8
:100B2000B4F5FA6F32DA374600202880012007F842
:100B3000010B2888401C288004F0070040B12046A3
:100B4000E11704EB5171C910491C01F0FF0805E0E1
:100B50002046E11704EB5171C1F3C70807F8018B78
:100B60002888401C2880002322464946384600F049
:100B70004DFA8246BAF1000F04D0504601F096FBC0
:100B8000834608E028884044288004E04FF0030BA7
:100B900001E04FF0030B5846BDE8F09F2DE9F05FF0
:100BA00006460D464FF0000B2888052847D170787F
:100BB0004FEA0029B07840EA090909F101001FFA5B
:100BC00080F9F078040230790443012C34DBB4F569
:100BD000FA6F31DA374600202880022007F8010B2F
:100BE0002888401C288004F0070040B12046E11707
:100BF00004EB5171C910491C01F0FF0805E02046C3
:100C0000E11704EB5171C1F3C70807F8018B28887D
:100C1000401C288022464946384600F043FA824666
:100C2000BAF1000F04D0504601F040FB834608E0C3
:100C300028884044288004E04FF0030B01E04FF087
:100C4000030B5846BDE8F09F2DE9F04705460C46DA
:100C50004FF0000A2088052837D168784FEA00282D
:100C6000A87840EA080808F101001FFA80F8E8783F
:100C700006022E79012E25DB7D2E23DC2F46002057
:100C80002080032007F8010B2088401C208070067C
:100C9000000E07F8010B2088401C208000233246FC
:100CA0004146384600F02EFA8146B9F1000F04D0D3
:100CB000484601F0FBFA824609E0208800EB460036
:100CC000208004E04FF0030A01E04FF0030A504691
:100CD000BDE8F0872DE9F04705460C464FF0000AC5
:100CE0002088052837D168784FEA0028A87840EA9C
:100CF000080808F101001FFA80F8E8780602287950
:100D00000643012E24DB7D2E22DA2F460020208090
:100D1000042007F8010B2088401C20807006000E7C
:100D200007F8010B2088401C208032464146384697
:100D300000F028FA8146B9F1000F04D0484601F0CE
:100D4000B5FA824609E0208800EB4600208004E0E6
:100D50004FF0030A01E04FF0030A5046BDE8F08768
:100D60002DE9FC5F04460D460020009028880A28E3
:100D70005DDB60784FEA002AA07840EA0A0A0AF1AF
:100D800001001FFA80FAE0780602207906436079B4
:100D90004FEA002BA07940EA0B0B0BF101001FFA80
:100DA00080FBE0790702207A0743607A0190012EE8
:100DB0003BDB7D2E39DC012F37DB792F35DC7900E9
:100DC0000198814231D101233A46594604F10A0083
:100DD00000F098F98146B9F1000F1ED1A04600201D
:100DE0002880172008F8010B2888401C28807006EE
:100DF000000E08F8010B2888401C2880002332468A
:100E00005146404600F07EF98146B9F1000F04D109
:100E10002888022101FB06002880B9F1000F06D0C6
:100E2000484601F043FA009001E00320009000984A
:100E3000BDE8FC9F70B505460C4606480288064989
:100E4000681CFFF71FFA03480088401C2080002020
:100E500070BD0000EE000020D80100202DE9F8430D
:100E600004460F464FF000083888052829D16078DD
:100E70000502A0780543681C85B22079F0B9E078B6
:100E8000FF2801D0E078C8B900208DF80100E07893
:100E9000FF2803D101208DF8000002E000208DF82A
:100EA000000001231A462946684600F0AFF80646BE
:100EB0004EB1304601F0FAF9804604E04FF00308E5
:100EC00001E04FF003084046BDE8F8832DE9F0410A
:100ED00004460F464FF000083888052812D1607884
:100EE0000502A0780543681C85B201231A462946ED
:100EF000E01C00F007F9064636B1304601F0D6F99D
:100F0000804601E04FF003084046BDE8F0812DE93E
:100F1000F05F05460E464FF0000B3088052839DD9E
:100F200068780702A8780743781C87B2E87804023B
:100F30002879044395F805A004F0070040B1204645
:100F4000E11704EB5171C910491C01F0FF0805E0DD
:100F50002046E11704EB5171C1F3C708012C16DBE1
:100F6000B4F5F66F13DCD04511D101232246394682
:100F7000A81D00F04BF88146B9F1000F04D0484697
:100F800001F094F9834607E00520308004E04FF03B
:100F9000030B01E04FF0030B5846BDE8F09F2DE92D
:100FA000F04704460E464FF0000A3088062828DB3A
:100FB00060780702A0780743781C87B2E0780502C2
:100FC0002079054394F80590012D17DB782D15DC69
:100FD0006806000E484511D101232A463946A01D56
:100FE00000F090F88046B8F1000F04D0404601F0C0
:100FF0005DF9824607E00520308004E04FF0030AE7
:1010000001E04FF0030A5046BDE8F0872DE9F047B4
:1010100005460E46904699464FF0000A0FFA88F4AE
:1010200030B2002836DB06EB0800102832DC3046F0
:1010300007B2B9F1000F03D0B9F1010F29D115E0C2
:1010400011E0082C01DD082000E02046C2B2B9B250
:10105000134801F0AFFC05F8010BA4F1080004B23D
:1010600007F1080007B2002CEBDC12E00EE015F8E7
:10107000013B082C01DD082000E02046C2B2B9B2D5
:10108000074801F0ACFCA4F1080004B2002CEEDC2F
:1010900000BF01E04FF0010A5046BDE8F0870000B4
:1010A000EA0000202DE9F04705460C4616464FF0B1
:1010B000000937B220B200281CDBA019102819DC67
:1010C00020461FFA80F812E0082F01DD082000E01A
:1010D0003846C2B241460A4801F06CFC05F8010BE3
:1010E000A7F1080007B208F108001FFA80F8002FE6
:1010F000EADC01E04FF001094846BDE8F087000056
:10110000EC000020F0B504460D4600206E1EB5B27E
:10111000002D30DBAE18082E2DDC184E3688A91BAA
:1011200013B1012B26D111E00DE0154E36F81160F8
:10113000361204F8016B124E16F8116004F8016BB8
:10114000491C561EB2B2002AEFDC13E010E014F87E
:10115000017B3E020A4F27F8116014F8016B37F843
:1011600011703E43064F27F81160491C561EB2B25B
:10117000002AECDC00E00120F0BD0000E8000020C7
:10118000D800002030B503460020002917DB8D1859
:10119000082D14DC0B4D2D884C1B0DE00A4D35F845
:1011A00014502D1203F8015B074D15F8145003F885
:1011B000015B641C551EAAB2002AEFDC00E001208E
:1011C00030BD0000D6000020C60000201EB5002162
:1011D0000022009201920292214A1268126802F0E3
:1011E000004282B1002200921E4A526902F080023F
:1011F00022B180221B4B5A6100229A609DE81C009C
:1012000080E81C001EBD164A1268126802F40042F3
:10121000B2B9134A1268126802F4807282B1104A9D
:101220001268126802F4007252B10D4A1268126814
:10123000C2F30D42111F0A4A12689268019200E03F
:1012400000210091064A12680292054A1268D2688B
:10125000034B1A609DE81C0080E81C0000BFD1E72A
:10126000B80100200090024070B50446204600F00E
:1012700011F8064616B94FF0FF3070BD21463046D2
:101280002269904705461DB1304600F0C9FA002694
:101290002846F2E72DE9F04387B081460026002575
:1012A00001A8FFF793FF01A807C804AB07C3049880
:1012B00087B2DDF814804FF4C1723946002000F087
:1012C000FFF9054665B12C4608E0628908EB060186
:1012D0006068FEF7D7FF608906442468002CF4D1CB
:1012E0004FF00040069908600648406900F0800011
:1012F00020B180200349486100208860284607B05B
:10130000BDE8F0830090024010B50248FFF7ACFF43
:1013100010BD0000100200201CB54FF44070FFF714
:1013200009F9A820FFF790FB00F0A8F94FF4E1308D
:1013300001F076F80648012100238022CDE9001053
:1013400004A1074801F0E2FC01F0C0FA00BFFEE78B
:101350000000002073746172745F7461736B00002D
:10136000F924000870B5054605B970BD05F0030005
:1013700060B100BF00BF00BF2E48B0F8D000401CD5
:1013800081B22C48A0F8D01000BFEEE7A5F1080408
:1013900029480068844205D305F10C0027490968F3
:1013A00088420CD900BF00BF00BF2248B0F8D0006F
:1013B000401C81B21F48A0F8D01000BFD5E72079AB
:1013C00060B900BF00BF00BF1A48B0F8D000401C91
:1013D00081B21848A0F8D01000BFC6E7204600F040
:1013E00031F860B900BF00BF00BF1248B0F8D000AC
:1013F000401C81B20F48A0F8D01000BFB5E7002014
:1014000020710F480068844201D20D480460208892
:1014100009490988611A411A0648B0F8CC00401AF7
:1014200081B20448A0F8CC10204600F04DFA00BF6D
:101430009BE70000388F00200401002008010020F5
:101440000C0100202DE9F0410446204600F0E8F8A8
:101450000546208800F054FF0646608800F050FFE3
:1014600007462088B0F5205F10D86088B0F5205F6F
:101470000CD86088A84202D03888A84206D1064815
:101480000068864205D07088A84202D00020BDE8DE
:10149000F0810120FBE70000080100202DE9F04762
:1014A0008046B8F1000F02D10020BDE8F08708F1B6
:1014B000030020F0030085B20C2D00D20C25B5F5F9
:1014C000205F01D8454501DA0020EEE75148006869
:1014D00000F0A6F806468DE0304600F011FF044605
:1014E000207900287ED1218806F10800081AA84238
:1014F0007CD3218806F10800091A05F11400814205
:1015000033D306F1080028441FFA80F900BF00BF5A
:10151000484600F0F5FE07460021397121883980E0
:101520007E80A4F80090012020713888B0F5205FFB
:1015300004D0388800F0E4FEA0F8029000BF3648DE
:10154000B0F8CC1005F10800084481B23248A0F888
:10155000CC10B0F8CE10B0F8CC00814204DA2E489E
:10156000B0F8CC10A0F8CE101BE00120207100BF15
:10157000204600F055F82849B1F8CC1022881144D3
:10158000081A81B22448A0F8CC10B0F8CE10B0F8F8
:10159000CC00814204DA2048B0F8CC10A0F8CE107C
:1015A00000BF1C480068844215D11A48D0F800A03A
:1015B00004E0BAF8000000F0A3FE82469AF80400A6
:1015C00018B1164800688245F3D11248C0F800A04F
:1015D00000BF00BF00BF00BF00BF00BF00BF00BF13
:1015E00000BF00E002E004F108005EE7304600F0D2
:1015F00087FE0688C5F52050B0423FF66DAF06481D
:10160000B0F8C800401C81B20348A0F8C810002000
:101610004BE700000C010020388F0020080100205B
:10162000014602480088081A80B270470401002071
:1016300070B504460D4600BF082C00DB70BD00BF2E
:1016400005B9FBE7034951F824002946FFF71EFAC4
:1016500000BFF3E71C33000870B5044600BF082C38
:1016600001DB002070BD00BF034951F82400FFF7E3
:101670001DFA05462846F5E71C3300081CB5012174
:101680001020FEF761FF01208DF8040000208DF886
:1016900006004FF40050009001208DF80700032051
:1016A0008DF8050069460548FEF792FE00BF4FF42D
:1016B00000510248FEF7F7FE00BF1CBD00100240BB
:1016C0002DE9FE4F82460D4690465746B8F1010F70
:1016D0000AD0B8F1410F06D0B8F5C17F0BD0B8F5EC
:1016E000207F7CD14AE000BF42462946002000F01E
:1016F0007DF8044677E0002400200290A94600BF50
:101700000720FFF7A9FF064636B914B1204600F0BE
:1017100087F80020BDE8FE8FF81C20F00300C0F51C
:10172000807080B2484501DD484605E0F81C20F095
:101730000300C0F5807080B283460020CDE90080B0
:1017400006F110003844C01C20F003015B464A46F5
:10175000304600F0AAF800BF00BF00BF00BF0CB9C0
:10176000344601E0029806600296A9EB0B001FFACE
:1017700080F90027B9F1000FC2DC34E0F81C20F03A
:101780000301E81C20F00300084486B206F11000B3
:101790001FFA80F9E81C20F00300B04204D8E81CCE
:1017A00020F00300484501D90020B3E74846FFF781
:1017B00075FE04460CB90020ACE70020CDE900809E
:1017C00004F110003844C01C20F003012B462A46C7
:1017D000204600F06AF800BF00BF04E0FFE700BF4A
:1017E00000BF002096E700BF204693E72DE9FC41AB
:1017F00006460C46174600BF00BF0620FFF72CFF29
:10180000054615B90020BDE8FC810020234622468C
:101810003146CDE90070284600F047F82846F2E747
:101820002DE9F047044624B900BF00BF0020BDE801
:10183000F087002635E000BF00BFA07B401E00F00F
:10184000FF0884F80E80B8F1000F28D12768207BAC
:1018500000F00F05607B00F0020038B1A14600BF28
:1018600000BF2046D9F81010884714E0022D04D19B
:1018700021460720FFF7DCFE0DE0012D04D12146B3
:101880000620FFF7D5FE06E01DB92046FFF76AFDEA
:1018900001E000BF00BF701CC6B23C4600E000245F
:1018A00000BF002CC7D13046C1E770B5DDE9044563
:1018B000002606604160028143810473457301265E
:1018C00086730026C67370BD2DE9F041044600BF43
:1018D00000BF00BF00BF00BF00BF00BF00BF208827
:1018E00000F00EFD0546AC4219D02879B8B91B4866
:1018F0000068854213D01A480068A84201D11848F0
:101900000460288820802888B0F5205F07D0204612
:10191000FFF786FE0746288800F0F2FC47806088C3
:1019200000F0EEFC0646A64215D0307998B90C4876
:101930000068A04201D10A480660208830802088D3
:10194000B0F5205F07D03046FFF76AFE07462088D3
:1019500000F0D6FC4780BDE8F081000008010020BF
:101960000C0100202DE9F04105460E462648076887
:1019700026480068001D00F00AFE50B923480068A0
:1019800090F82C10012088402149096881432048A3
:101990000160681CD8B9D6B11E4948681B4909685E
:1019A00088601A4982680968CA6018490968091D6F
:1019B0008268516015490968091D8160154A1349FB
:1019C00009684A6111460968491C11601AE07C19CE
:1019D0000E4800684460BC4207D20C480168091DEB
:1019E0000D48006800F0FEFD0CE008480168091D84
:1019F0000A48006800F0F6FD09480068844201D2F8
:101A000007480460BDE8F081640100205001002017
:101A100068010020F4F80020580100205401002043
:101A20008001002010B5044600F002FE2F48006837
:101A3000401C2E4908602E48006840B92C480460BC
:101A40000846006801280DD100F0BAF90AE02948DB
:101A5000006838B926480068C06AE16A884201D83F
:101A60002348046024480068401C2349086094F817
:101A70002C10012088402149096808431F4908604B
:101A8000E16A01EB81011E4A02EB81014868A06016
:101A90008268E260211D826851608160E16A01EB29
:101AA0008101174A02EB81026261E16A01EB810167
:101AB000134A52F82110491CE26A02EB8202104BD1
:101AC00043F8221000F0C6FD0A48006868B10848D3
:101AD0000068C06AE16A884207D24FF08050094925
:101AE0000860BFF34F8FBFF36F8F10BD6001002000
:101AF000500100206C0100207C01002068010020C2
:101B000040F8002004ED00E010B500F091FD0C4815
:101B1000006890B90B4800F055FD0B4800F052FDED
:101B200008480A490860084809490860002210214D
:101B3000052000F0C3FF0249086000F08BFD10BDD6
:101B40009801002008F900201CF9002090010020D5
:101B50009401002010B516E000F06AFD0C48C06842
:101B6000C468201D00F013FD0A480068401E0949A2
:101B7000086009480068401E0749086000F06AFDD7
:101B8000204600F05FF8044800680028E4D110BD4A
:101B9000E0F80020600100205C01002070B50446E0
:101BA0000D46206C70B1216CE0680144E160D4E91D
:101BB0000210884201D32168E1602846226CE16866
:101BC000FEF760FB70BD2DE9F04104460F46154657
:101BD0004FF00008A66B206C48B9206800282CD173
:101BE000A06801F0A5F980460020A06025E07DB93D
:101BF0003946226C6068FEF745FB216C606808443A
:101C00006060D4E90101884217D32068606014E065
:101C10003946226CE068FEF735FB216CE068411A1A
:101C2000E1602168E068884203D2216CA068411A13
:101C3000E160022D01D106B1761E701CA063404602
:101C4000BDE8F08110B50446206B00F013FD20467E
:101C500000F010FD10BD00000146084A126812682D
:101C60000AB9012200E000220A600A6822B9034A88
:101C70001268D268106800E00020704790010020D0
:101C800030B54FF4D043154800F007042CB1C01D07
:101C900020F00700114C041B1B1B0246104C226055
:101CA00000240F4D6C60D018083820F007000D4C50
:101CB000206000240B4D2D686C600A4D2D682C604F
:101CC0001146441A4C60074C24680C60064D4C6861
:101CD0002C60064D4C682C6030BD00004090002008
:101CE0003001002038010020400100203C0100208C
:101CF00000BFFFF72FFF064800680128F9D94FF011
:101D0000805004490860BFF34F8FBFF36F8FF0E737
:101D100040F8002004ED00E02DE9F04106460D46B4
:101D200017469846069C0DB9246000E02760E663DC
:101D300025640121204600F0E7FE0020A064BDE8F4
:101D4000F0812DE9FF5F80460E469146DDE90E7A6F
:101D5000109CA9F10100216B01EB800B2BF0070B0C
:101D60007EB1002507E0715D04F134004155705DDE
:101D700000B902E06D1C0A2DF5D300BF00213D2003
:101D80000155052F00D30427E7622764201D00F0CA
:101D900026FC04F1180000F022FC2461C7F10500C4
:101DA000A061646241465846039A00F023FB20601C
:101DB000BAF1000F01D0CAF80040BDE8FF9F000053
:101DC00010B5002407E004EB84010F4A02EB810008
:101DD00000F0F8FB641C052CF5D30C4800F0F2FB76
:101DE0000B4800F0EFFB0B4800F0ECFB0A4800F05A
:101DF000E9FB0A4800F0E6FB04480949086004488A
:101E00000849086010BD000040F80020A4F8002038
:101E1000B8F80020CCF80020E0F80020F4F800200A
:101E2000540100205801002010B50146164800E07A
:101E3000006803688B42FBD30246436813448B421D
:101E400004D143684C682344436001460A464B680A
:101E500013440468A34211D10C4C03682468A342C4
:101E600008D04B680468646823444B6003681B68AF
:101E70000B6005E0054B1B680B6001E003680B601D
:101E8000884200D0016010BD3001002038010020E0
:101E90002DE9F04104460D4616461F464FF0000856
:101EA00065602461B5420CD8F01BA169884202D359
:101EB0004FF0010811E0211D0948006800F092FB75
:101EC0000BE0BE4204D2BD4202D34FF0010804E051
:101ED000211D0448006800F085FB4046BDE8F08104
:101EE000940100209001002070B5054600F0A0FB91
:101EF000A86B08B9012400E0002400F0ABFB2046E9
:101F000070BDF1B50098846C0026A06BE16B88422F
:101F100021D294F94550002269462046FFF753FE2E
:101F20000646681C60B9606A08B9012000E000201C
:101F300080B904F1240001F051F858B1012609E0FC
:101F400000F03AFB0746BD4203D2681C40B284F859
:101F5000450000BF00BF3046F8BD000070B5054623
:101F60000E460E480068C068C468201D00F00FFBD4
:101F700094F8240000F0040028B132462946204697
:101F800000F0D0F805E094F8240000F0FE0084F89A
:101F900024002046216A884770BD0000900100207F
:101FA00070B586B077E00298002805DA03AED6E96E
:101FB0000020B168904700BF029800286BDB049CAA
:101FC000606908B9012000E0002010B9201D00F070
:101FD000DEFA01A800F0D2F8054602980A2858D285
:101FE000DFE800F05705072E364706082F3700BFF9
:101FF00000BF00BF94F8240040F0010084F82400E2
:102000000398A269811803462A462046FFF740FF3D
:10201000A8B194F8240000F0040038B10398A26934
:1020200081182A46204600F07DF805E094F8240047
:1020300000F0FE0084F824002046216A884729E049
:1020400000BF94F8240000F0FE0084F8240021E092
:1020500000BF94F8240040F0010084F824000398A5
:10206000A061A06941192B462A462046FFF710FFC0
:1020700010E094F8240000F0020018B9204600F0A7
:10208000F9FA05E094F8240000F0FE0084F824003A
:1020900000E000BF00BF002202A90448006800F071
:1020A00083FD00287FF47FAF06B070BD980100204B
:1020B000F8B505460C4600F045FC684600F05EF8B1
:1020C0000646009820BB44B9B54206D801F00AF88C
:1020D00031462846FFF742FF1CE03CB10E4800683D
:1020E000006808B9012000E000200446A91B224630
:1020F0000A48006800F0F8FA00F0F4FF50B94FF019
:10210000805007490860BFF34F8FBFF36F8F01E026
:1021100000F0E8FFF8BD00009401002098010020C5
:1021200004ED00E070B504460D46164604E0A069D3
:1021300005442046216A8847A06941192B4632464A
:102140002046FFF7A5FE0028F1D170BD09480068C0
:10215000006808B9012000E0002020B14FF0FF30F6
:102160000549086005E003480068C0680068024946
:1021700008607047540100208001002070B50446BB
:1021800000F008FE054607480068854204D200F0CA
:102190000BF80120206001E000202060014805606C
:1021A000284670BDA001002070B508E00D48006809
:1021B000C06804684FF0FF312046FFF7CFFE0948A2
:1021C0000068006808B9012000E000200028EDD078
:1021D0000448056804480068024908600248056030
:1021E00070BD0000900100209401002000BFA020DD
:1021F00080F31188BFF34F8FBFF36F8F00BF00BF15
:10220000FEE708B500BF6846FFF726FD04462046F6
:102210000099FFF74DFFFFF7C3FEF4E770B50446E2
:1022200000F006FA94F9455019E0A06C30B1204650
:10223000FFF767FE88B100F00DFB0EE0606A08B999
:10224000012000E0002038B904F1240000F0C6FEAF
:1022500018B100F0FFFA00E003E0681E45B2002D5F
:10226000E3DC00BFFF2084F8450000F0F3F900F044
:10227000DFF994F9445010E0206908B9012000E02A
:10228000002048B904F1100000F0A8FE08B100F0E9
:10229000E1FA681E45B200E001E0002DECDC00BF71
:1022A000FF2084F8440000F0D5F970BD014621B14B
:1022B000012904D0072906D103E0002005E002200F
:1022C00003E0062001E0042000BF00BF70470000CB
:1022D00010B502480068804710BD000028000020AB
:1022E00010B502480068804710BD00002C00002097
:1022F00010B502480068804710BD00003000002083
:1023000001460248006808447047000004010020AC
:102310002DE9F04705464FF0000900F013FB304867
:10232000006808B9FFF7ACFC75B105F00700C0F113
:102330001008C8F1FF30A84201D2012000E00020BF
:1023400008B9454400E00025012000EBE5700028B5
:1023500041D0002D3FD02348006885423BD8224E13
:102360003046046801E0264624686068A84202D22C
:1023700020680028F7D11A48006884422BD03068C2
:1023800000F10809206830606068401B102807D9F8
:1023900067196068401B786065603846FFF744FD48
:1023A000104960680968081A0E4908600846006804
:1023B0000E490968884203D20A4800680B49086040
:1023C000606840F0004060600020206008480068BD
:1023D000401C0749086000F085FE4846BDE8F087CC
:1023E000380100203C010020300100204001002085
:1023F00044010020001F4FF080730360001F21F094
:1024000001030360001F054B036014380260001FC6
:102410006FF002030360203870470000ED210008D0
:1024200010B588B0044602208DF81C008DF81D0000
:1024300000208DF81E0001208DF81F0001210820CA
:10244000FEF782F8072205212248FEF709F820202E
:10245000069006A91F48FDF7BBFF01210820FEF7E3
:1024600073F8072206211B48FDF7FAFF402006906B
:1024700006A91848FDF7ACFF01214804FEF774F8DF
:1024800002940020ADF80C00ADF80E00ADF810007D
:10249000ADF814000C20ADF8120002A90E48FEF7AA
:1024A00057FA26208DF8040001208DF80500002041
:1024B0008DF8060001208DF8070001A8FDF7FEFF4A
:1024C00001210548FEF70DFAFF2000F007F808B0DB
:1024D00010BD0000000C0240004400400549088087
:1024E00000BF0449091F098801F040010029F8D004
:1024F00070470000044400401CB5044600F098F802
:102500000D48022100238022CDE900100BA10D48C7
:1025100000F0FCFB0C48032100238022CDE90010D1
:102520000AA10C4800F0F2FB0B48006800F01CF90F
:1025300000F090F81CBD0000040000207461736B73
:10254000310000005D250008080000207461736BF5
:10255000320000007D250008000000200AE000BFD6
:102560004FF400510448FDF7A0FF00BF4FF4FA708C
:1025700000F0E0F8F3E700000010024006E0AA20B7
:10258000FFF7ACFF4FF4FA7000F0D4F8F7E701461C
:102590000A69D1E901309860D1E9010358605068B7
:1025A000884201D188685060002008611068401E90
:1025B0001060106870470000014800687047000014
:1025C0006001002000F1080141604FF0FF3181609F
:1025D00000F10801C1600161002101607047002124
:1025E0000161704710B502460B685C1C0CB910699C
:1025F00007E002F1080000E04068446824689C425B
:10260000FAD944684C604C68A160886041600A61F6
:102610001468641C146010BD42684A6093688B6043
:10262000936859609160086103685B1C03607047A0
:1026300000BFA02080F31188BFF34F8FBFF36F8FCF
:1026400000BF03480068401C014908607047000053
:102650004C01002006480068401E054908600846F5
:10266000006820B9002080F3118800BF00BF7047C8
:102670004C01002070B506463546E6B1083D2C46B3
:102680006068C00FB8B12068A8B9606820F0004049
:10269000606000F057F90849606809680844064915
:1026A00008602046FFF7C0FB04480068401C03494F
:1026B000086000F017FD70BD3C01002048010020BB
:1026C00000204FF0E02108618861064800684FF45F
:1026D0007A71B0FBF1F0401E4FF0E0214861072015
:1026E00008617047C40100202DE9F04105460E46FF
:1026F00017462C46FFF79CFF94F94400401C10B984
:10270000002084F8440094F94500401C10B90020D2
:1027100084F84500FFF79EFFA06B28B93A46314682
:1027200004F1240000F0ACF82046FFF777FDBDE887
:10273000F081000070B50446002544B100F002F9B4
:1027400000212046FFF70EF900F0CCFC05463DB90C
:102750004FF0805003490860BFF34F8FBFF36F8F76
:1027600070BD000004ED00E070B50546FFF760FFA6
:1027700015B92948006800E028460446201DFFF7E7
:1027800006FF78B9E06A00EB8000244951F8200088
:1027900040B994F82C1001208840214909688143F0
:1027A0001F480160A06A18B104F11800FFF7EFFE9E
:1027B0001C480068401C1B49086017480068844298
:1027C00009D1211D1848FFF727FF18480068401C51
:1027D0001649086006E016480068401E1449086063
:1027E000FFF7B4FCFFF736FF0B480068844202D0C5
:1027F0002046FFF727FA0F48006858B106480068DE
:10280000844207D14FF080500B490860BFF34F8FCF
:10281000BFF36F8F70BD00005001002040F8002012
:10282000680100207C010020E0F800205C0100200D
:10283000600100206C01002004ED00E003490968FC
:102840000160034909684160704700007801002079
:1028500064010020012001490860704774010020D4
:1028600070B505460C460548016818312846FFF743
:10287000B9FE01212046FFF775F870BD5001002018
:1028800070B504460E46154660680F490968C86170
:102890000D49826809680A620B4909681831826823
:1028A00051600949096818318160074909688C62DB
:1028B0002168491C21600DB14FF0FF362946304692
:1028C000FFF750F870BD0000500100201CB51548FE
:1028D00000210B467822CDE9001013A1144800F026
:1028E00015FA0446012C02D100F0AAFC0446012C82
:1028F00014D100BFA02080F31188BFF34F8FBFF326
:102900006F8F00BF4FF0FF300A49086001200A496D
:10291000086000200949086000F092F80848006843
:102920001CBD00008401002049444C45000000000B
:10293000F11C0008800100206C01002064010020CF
:102940008801002002480068401C01490860704767
:102950008C0100201248006818B10120114908605C
:102960001DE000200F4908600F480068B0FA80F0B1
:10297000C0F11F0101EB81020C4B03EB82004268A6
:102980005268426000F108024368934202D14268F3
:10299000526842604268D268054B1A6000BF7047B7
:1029A0008C010020740100206801002040F8002004
:1029B00050010020F0B503460C461546E208A4EB92
:1029C000C20087B20120A840401E86B2995C501C0C
:1029D000185C41EA002139413140C8B2F0BD2DE90F
:1029E000F043044615461F46C808A1EBC0081FFA6D
:1029F00088FC07FA0CF81FFA88F74FF0010808FA6C
:102A000005F8A8F101081FFA88F6A1EBC00806FA3C
:102A100008F81FFA88F6225C00F1010814F8088013
:102A200042EA082222EA060848EA070222544FEA4C
:102A3000222900F1010804F80890BDE8F0830000A5
:102A400010B50E48006840F0F0700C490860084668
:102A5000006840F060400860FFF732FE002008493F
:102A60000860FDF7C1FB0748006840F04040054999
:102A70000860FDF7A5FB002010BD000020ED00E080
:102A80004C01002034EF00E010B500BFA02080F31F
:102A90001188BFF34F8FBFF36F8F00BF00F080F935
:102AA00018B14FF080500449086000BF002080F347
:102AB000118800BF10BD000004ED00E02DE9F843CF
:102AC00004460E4617460025DCB1681EB0FBF4F044
:102AD000B04216D304FB06F010F14D0F11D804FBE1
:102AE00006F909F14C00FFF713FC05464DB1A84665
:102AF00008F14C083B464246314620460095FFF718
:102B00000BF92846BDE8F8832DE9F04105460E464D
:102B100001272C46002C41D0E06B00283ED0B91E86
:102B2000E06BB1FBF0F0216C884237D3FFF780FDFA
:102B3000D4E90F12206801FB0200A0600020A0630E
:102B400020686060E06B401E226C216800FB02116F
:102B5000E160FF2084F8440084F845009EB92069B4
:102B600008B9012000E00020A8B904F1100000F02D
:102B700035FA80B14FF080500A490860BFF34F8F9B
:102B8000BFF36F8F07E004F11000FFF71BFD04F1A6
:102B90002400FFF717FDFFF75DFD00E00027384632
:102BA000BDE8F08104ED00E02DE9F74183B0054672
:102BB0000F464FF000082C4600BFFFF739FDA66B0B
:102BC000F6B139462046FEF7E9FF701EA063206982
:102BD00008B9012000E0002060B904F1100000F005
:102BE000FDF938B14FF080502F490860BFF34F8F87
:102BF000BFF36F8FFFF72EFD012006B0BDE8F08117
:102C0000059818B9FFF726FD0020F6E7B8F1000F88
:102C100004D101A8FFF712FE4FF00108FFF71AFDDB
:102C2000FFF790FEFFF704FD94F94400401C10B933
:102C3000002084F8440094F94500401C10B900209D
:102C400084F84500FFF706FD05A901A800F02EF85D
:102C5000F0B92046FFF748F9A0B104F12400059926
:102C6000FFF7FEFD2046FFF7D9FA00F03BFA0028F7
:102C7000A3D14FF080500C490860BFF34F8FBFF3D2
:102C80006F8F9AE72046FFF7C9FA00F02BFA94E716
:102C90002046FFF7C3FA00F025FA2046FFF724F993
:102CA00000288AD00020A8E704ED00E070B50646B1
:102CB0000C46FFF7BDFC134802687068131A2068C1
:102CC000401C08B9002519E00F493068096888429E
:102CD00006D07068904203D80125002020600DE0E6
:102CE0002068984207D92068C01A20603046FFF754
:102CF000A5FD002502E0002020600125FFF7AAFCC9
:102D0000284670BD64010020780100202DE9FF4FA6
:102D100085B0804689461746DDE912ABB800FFF75B
:102D2000F7FA064676B15020FFF7F2FA04462CB1C6
:102D300050212046FDF7CDFA266304E03046FFF728
:102D400099FC00E000247CB10020CDE900ABCDE986
:102D500002403A4649464046089BFEF7F2FF2046AD
:102D6000FEF760FE012501E04FF0FF35284609B06F
:102D7000BDE8F08F0549096809B9012005E004495B
:102D8000096809B9022000E0002070476C010020AA
:102D90008C01002001490868704700006401002090
:102DA0002DE9F04100275748006800287ED1564899
:102DB0000068451C544805608DB95448D0F800801F
:102DC00053480068514908605148C0F80080514894
:102DD0000068401C4F490860FFF7B8F900BF4E4833
:102DE0000068854276D300BF48480068006808B98B
:102DF000012000E0002020B14FF0FF30464908607C
:102E000067E042480068C068C4686668B54202D29C
:102E1000414806605DE06069D4E902128A60D4E945
:102E200002214A60211D42688A4201D1E168416065
:102E3000002262610168491E0160A06A98B1A06A1F
:102E4000D4E907128A60D4E907214A6004F1180125
:102E500042688A4201D1216A41600022A26201686F
:102E6000491E016000BF94F82C10012088402B49B6
:102E70000968084329490860E16A01EB8101284A91
:102E800002EB81014868A0608268E260211D8268CF
:102E900051608160E16A01EB8101214A02EB81020C
:102EA0006261E16A01EB81011D4A00E022E052F813
:102EB0002110491CE26A02EB8202194B43F82210EE
:102EC0001849E06A0968C96A88428DD901278BE7E9
:102ED00000E000BF13480068C06A00EB80001049A2
:102EE00051F82000012800D901270F48006800B1DF
:102EF000012704E00D480068401C0C490860384672
:102F0000BDE8F0818C010020640100205401002004
:102F10005801002078010020800100206801002075
:102F200040F80020500100207401002070010020B2
:102F300070B505462C460026002D48D0606C401E1A
:102F40006064216CE06A884241D0606C00283ED108
:102F5000201DFFF71CFB40B994F82C10012088407D
:102F60001C49096881431B480160206CE062E06AEB
:102F7000C0F10500A06194F82C100120884015498B
:102F80000968084313490860E16A01EB8101124AAC
:102F900002EB81014868A0608268E260211D8268BE
:102FA00051608160E16A01EB81010B4A02EB810211
:102FB0006261E16A01EB8101074A52F82110491C64
:102FC000E26A02EB8202044B43F8221001263046EB
:102FD00070BD00006801002040F8002070B5034675
:102FE000D868C168886AD1E90745A560D1E9075466
:102FF000656001F118044568A54201D10C6A44607E
:1030000000258D620468641E046030480068002852
:103010003DD14869D1E90245A560D1E90254656016
:103020000C1D4568A54201D1CC68446000254D6166
:103030000468641E046091F82C400120A040244CD8
:1030400024682043224C2060CC6A04EB8404214D88
:1030500005EB8404606888608568CD600C1D856818
:103060006C608460CC6A04EB84041A4D05EB840523
:103070004D61CC6A04EB8404164D55F82440641C61
:10308000CD6A05EB8505134E46F8254010E0124C3D
:103090006068C86185680D6201F1180485686C601C
:1030A00084600D4D8D622C462468641C2C6000BF2A
:1030B0000A4CC86A2468E46AA04204D901220120AB
:1030C000074C206000E00022104670BD8C010020FB
:1030D0006801002040F80020CCF8002050010020BA
:1030E0007401002070B500240026FFF7A1FA4B48B8
:1030F0000068401E494908600846006800287DD1E4
:1031000047480068002879D05BE04648C068C4683A
:10311000A06AD4E907128A60D4E907214A6004F161
:10312000180142688A4201D1216A41600022A262EC
:103130000168491E01606069D4E902128A60D4E91D
:1031400002214A60211D42688A4201D1E168416042
:10315000002262610168491E016094F82C10012070
:1031600088403149096808432F490860E16A01EB4A
:1031700081012E4A02EB81014868A0608268E2600A
:10318000211D826851608160E16A01EB8101274A5B
:1031900002EB81026261E16A01EB8101234A52F88C
:1031A0002110491CE26A02EB8202204B43F82210F4
:1031B0001F49E06A0968C96A884202D301201D4993
:1031C00008601848006808B9012000E000200028C5
:1031D0009BD00CB1FEF7BAFF1748056865B100BF78
:1031E000FFF7DEFD10B10120124908606D1E002DB1
:1031F000F6D10020104908600E4800E009E00068A0
:1032000038B1012630070D490860BFF34F8FBFF377
:103210006F8FFFF71FFA304670BD00008C01002051
:1032200060010020CCF800206801002040F8002058
:1032300050010020740100207001002004ED00E026
:103240001CB50024FEF760FC0748006850B1074831
:10325000042100237822CDE9001005A10648FFF7DC
:1032600055FD044620461CBD980100209C0100200D
:10327000546D72205376630003220008483300081F
:10328000B40200201C0003005C020020100100209A
:103290003C330008480A002020003C00C402002003
:1032A000140100205C330008C40B002018000F003C
:1032B000580A00201801002050330008C80C0020D4
:1032C00008001E00D40B00201C01002084330008DD
:1032D0005C0D002010000800D80C00202001002008
:1032E00090330008800E0020100011006C0D0020AB
:1032F0002401002074330008940F002010001000F7
:10330000900E00202801002068330008288F00203C
:1033100010017800A40F00202C0100207C3200084E
:1033200090320008A4320008B8320008CC320008FD
:10333000E0320008F43200080833000852454153D7
:1033400053444154410000005241575F50434200F2
:103350004152505F51554555450000004652414786
:103360005F50425546000000504255465F504F4F57
:103370004C000000504255465F5245462F524F4D7B
:103380000000000049474D505F47524F5550000024
:103390005359535F54494D454F555400BC330008B1
:1033A00000000020D80100000C0300084034000891
:1033B000D801002058170100380A0008011202291C
:1033C00002321113350E33080413D50C3308031AD7
:1033D00049083210139F0F3308061ACD20321713F5
:1033E000610D33080113EF0A3308051A5D18320F17
:1033F0001A0F282972139D0B023B08180F10011099
:10340000021003100410051006100781180D7B141C
:103410008E3F7B140E40B81E55400C22400C2801F4
:103420000201DB01351AAA010138021F042D010235
:10343000030404051106070809AC7A030A282924A5
:040000050800018965
:00000001FF
