:020000040800F2
:100000003019012061020008BB040008B304000895
:10001000B704000863030008F50A000800000000A8
:10002000000000000000000000000000A101000826
:100030006703000800000000FD0100087D070008BC
:100040007B0200087B0200087B0200087B0200089C
:100050007B0200087B0200087B0200087B0200088C
:100060007B0200087B0200087B0200087B0200087C
:100070007B0200087B0200087B0200087B0200086C
:100080007B0200087B0200087B0200087B0200085C
:100090007B0200087B0200087B0200087B0200084C
:1000A0007B020008190800087B0200087B02000898
:1000B000490800087B0200087B0200087B02000858
:1000C0007B0200087B0200087B0200087B0200081C
:1000D0007B0200087B0200083D0900087B02000843
:1000E0007B0200087B0200087B0200087B020008FC
:1000F0007B0200087B0200087B0200087B020008EC
:100100007B0200087B0200087B0200087B020008DB
:100110007B0200087B0200087B0200087B020008CB
:100120007B0200087B0200087B0200087B020008BB
:100130007B020008A90300087B0200087B0200087C
:100140007B0200087B0200087B0200087B0200089B
:100150007B0200087B0200087B0200087B0200088B
:100160007B0200087B0200087B0200087B0200087B
:100170007B0200087B0200087B0200087B0200086B
:100180007B0200087B020008DFF810D000F0ACF81A
:1001900000480047B5140008AFF300803019012073
:1001A0002C4B19680868B0E8F04F80F30988BFF35A
:1001B0006F8F4FF0000080F311887047000000003F
:1001C00008480068006880F308884FF0000080F35A
:1001D000148862B661B6BFF34F8FBFF36F8F00DF35
:1001E00000BF00BF08ED00E0DFF80C00016841F43B
:1001F00070010160704700BF88ED00E0EFF30980F7
:10020000BFF36F8F134B1A681EF0100F08BF20ED5D
:10021000108A20E9F04F106009B44FF0A00080F37D
:100220001188BFF34F8FBFF36F8F02F0B1FE4FF015
:10023000000080F3118809BC19680868B0E8F04F25
:100240001EF0100F08BFB0EC108A80F30988BFF3CE
:100250006F8F704764010020EFF305807047000046
:100260000648804706480047FEE7FEE7FEE7FEE750
:10027000FEE7FEE7FEE7FEE7FEE7FEE7B107000860
:100280008901000810B5431A934209D283188818CF
:1002900003E010F8011D03F8011D521EF9D210BD34
:1002A00040EA01039B0703D009E008C9121F08C0F8
:1002B000042AFAD203E011F8013B00F8013B521E78
:1002C000F9D210BDD2B201E000F8012B491EFBD2D9
:1002D00070470022F6E710B513460A460446194651
:1002E000FFF7F0FF204610BD064C074D06E0E06822
:1002F00040F0010394E8070098471034AC42F6D36D
:10030000FFF746FF9C3C0008BC3C000870B58C1809
:1003100010F8015B15F0070301D110F8013B2A1119
:1003200006D110F8012B03E010F8016B01F8016B06
:100330005B1EF9D12B0705D40023521E0DD401F802
:10034000013BFAE710F8013BCB1A921C03E013F8CB
:10035000015B01F8015B521EF9D5A142D8D3002000
:1003600070BD00BFFEE7704701494861704700005B
:100370000090024001460868C0F30D40704700B588
:1003800002460023106800F0004058B9106800F4DD
:10039000004038B9106800F4807018B11046FFF7BB
:1003A000E9FF0346184600BD10B501E001F07AF8F8
:1003B00006480068FFF7E3FF0028F7D14020FFF769
:1003C000D3FF4FF48030FFF7CFFF10BDCC010020EA
:1003D000F0B50A4600210023002400BF3DE00125BE
:1003E00005FA01F3156805EA03049C4234D1056857
:1003F0004F000326BE40B543056015794E00B54059
:100400000668354305601579012D02D01579022D56
:1004100016D185684F000326BE40B54385605579E7
:100420004E00B540866835438560456801268E409C
:10043000B5434560456896798E40B6B23543456010
:10044000C5684F000326BE40B543C560D5794E0050
:10045000B540C6683543C560491C1029BFD3F0BDFF
:10046000F0B5002300244D07ED0E02FA05F3CE107F
:1004700000F1200555F826504E07F70E0F26BE4016
:10048000B543CF1000F1200646F82750CE1000F1FA
:10049000200555F8265045EA0304CE1000F120054A
:1004A00045F82640F0BD8161704742694A4042618B
:1004B000704700BFFEE700BFFEE7704770B5002140
:1004C00000230F22C4781CB3174C246804F4E064A2
:1004D000C4F5E064C4F30721C1F10404E3B20A41A6
:1004E00044789C40E1B28478144021430C07210EEB
:1004F0000E4C05786155047804F01F050124AC40CA
:1005000005786D11AD0005F1E025C5F8004109E061
:10051000047804F01F050124AC40054D06787611DF
:1005200045F8264070BD00000CED00E000E400E05E
:1005300080E100E002490143024A11607047000077
:100540000000FA050CED00E029B1064A12680243EA
:10055000044B1A6004E0034A12688243014B1A609C
:10056000704700003038024029B1064A1268024341
:10057000044B1A6004E0034A12688243014B1A607C
:10058000704700004038024029B1064A1268024311
:10059000044B1A6004E0034A12688243014B1A605C
:1005A0007047000044380240F0B5002100220024CA
:1005B000022500260223324F3F6807F00C0121B1CB
:1005C000042905D0082937D105E02E4F076036E011
:1005D0002D4F076033E02A4F3F1F3F68C7F3805617
:1005E000274F3F1F3F6807F03F036EB1264FB7FB11
:1005F000F3F7DFF88CC0ACF1040CDCF800C0CCF3EE
:10060000881C07FB0CF40CE01E4FB7FBF3F7DFF878
:1006100070C0ACF1040CDCF800C0CCF3881C07FB04
:100620000CF4174F3F1F3F68C7F301477F1C7D0045
:10063000B4FBF5F7076002E0124F076000BF00BF90
:100640000F4F3F6807F0F0010909104F7A5C076807
:10065000D74047600A4F3F6807F4E051890A0B4FC3
:100660007A5C4768D7408760054F3F6807F4604170
:10067000490B064F7A5C4768D740C760F0BD000061
:10068000083802400024F40040787D01B8010020C1
:100690000CB50020019000903448006840F4803090
:1006A0003249086000BF3148006800F40030009013
:1006B0000198401C0190009818B90198B0F5A04F1E
:1006C000F1D12A48006800F4003010B101200090F8
:1006D00001E0002000900098012846D123484030D6
:1006E000006840F08050214940310860204800688F
:1006F00040F440401E4908601C48083000681B490F
:10070000083108600846006840F400400860084668
:10071000006840F4A05008601648091F0860081FD0
:10072000006840F08070091F086000BF0F48006833
:1007300000F000700028F9D040F205700E49086002
:100740000A480830006820F00300084908310860B2
:100750000846006840F00200086000BF0348083007
:10076000006800F00C000828F8D10CBD00380240E9
:100770000070004019544007003C024010B500BF13
:10078000A02080F31188BFF34F8FBFF36F8F00BF9E
:1007900002F026FF18B14FF080500449086000BFF6
:1007A000002080F3118800BF10BD000004ED00E0C0
:1007B00010B51548006840F47000134908601348EC
:1007C000006840F001001149086000200F4908311D
:1007D00008600E4800680E4908400C4908600D4842
:1007E000091D0860081F006820F48020091F0860A8
:1007F000002006490C310860FFF74AFF4FF0006007
:1008000001498039086010BD88ED00E000380240E1
:10081000FFFFF6FE1030002410B50121084800F05B
:1008200030F801280AD100F0B5F906480068401CEC
:10083000044908600121024800F014F810BD0000CE
:10084000000001400001002010B50121880700F0E0
:1008500018F8012805D101F0DBFE0121880700F01E
:1008600001F810BDCA430282704721B1028842F0EC
:100870000102028004E002884FF6FE731A400280F3
:10088000704730B50246002000230024158A05EA8F
:100890000103958905EA010413B10CB1012000E0C0
:1008A000002030BD1AB183890B43838102E0838924
:1008B0008B4383817047000000220288184B9842C6
:1008C0000ED0184B98420BD0B0F1804F08D0164B89
:1008D000984205D0154B984202D0154B984204D14E
:1008E0004FF68F731A404B881A43124B984207D029
:1008F000114B984204D04FF6FF431A400B891A431C
:1009000002804B68C3620B880385054B984202D076
:10091000044B984201D18B7A03860123838270476E
:1009200000000140000401400004004000080040B5
:10093000000C0040001000400014004010B540F2D0
:100940002551134800F041F830B101F051FE40F25A
:1009500025510F4800F01EF84FF458710C4800F074
:1009600034F830B101F044FE4FF45871084800F0FB
:1009700011F840F22661064800F027F830B101F086
:100980003FFE40F22661024800F004F810BD00006E
:100990000044004010B50022002340F66A14A14232
:1009A00000D100BF0A1201249440A3B2DC430480AA
:1009B00010BD21B1828942F40052828104E0828913
:1009C0004DF6FF731A408281704770B502460024CD
:1009D00000230025002040F66A16B14200D100BF76
:1009E000C1F3421501F01F03012606FA03F3012D9E
:1009F00002D19689334006E0022D02D1168A334097
:100A000001E0968A33400C12012606FA04F4168897
:100A1000344013B10CB1012000E0002070BD000093
:100A20002DE9FF4705460E460024A14600BFA0461B
:100A3000B08900B100BF2C8A24F44054F0880443EC
:100A40002C82AC8941F20C608443B0883189084320
:100A5000718908430443AC81AC8A24F44074B089A2
:100A60000443AC826846FFF79FFD2048854202D0D0
:100A70001F48854202D1DDF80C9001E0DDF80890B6
:100A8000A88900F4004040B109EBC90000EB09104F
:100A900031684900B0FBF1F707E009EBC90000EB52
:100AA000091031688900B0FBF1F76420B7FBF0F062
:100AB00004012009642101FB1078A88900F400409A
:100AC00040B1322000EBC800B0FBF1F000F00700AD
:100AD000044308E0322000EB08106421B0FBF1F081
:100AE00000F00F0004432C81BDE8FF870010014097
:100AF0000014014000BFFEE702E008C8121F08C151
:100B0000002AFAD170477047002001E001C1121F8E
:100B1000002AFBD1704700000349086000BF02496A
:100B200009680029FBD170470C0000207FB50546FD
:100B30000C4601210846FFF727FD0020ADF80C0008
:100B4000681E80B2ADF80400601E02900020ADF86F
:100B500006008DF80E0001A90D48FFF7ADFE012239
:100B600011460B48FFF79EFE19208DF8000001206A
:100B70008DF8030003208DF8010000208DF802009D
:100B80006846FFF79BFC01210148FFF76EFE7FBD21
:100B9000000001400448006820B103480068401E7E
:100BA00001490860704700000C00002010B50A469B
:100BB00000BF00BF114643681B895B1E4468238148
:100BC00003691B680B600369196010BD0146086961
:100BD0000268AAB110680B69186000BF00BF4868BE
:100BE0000089401C4B681881486800894B685B8904
:100BF000984203DD486800894B6858811046704769
:100C000048688088401C4B6898800020F7E72DE9F1
:100C1000F05F06460D464FF0000B2888052848D1A6
:100C200070784FEA0029B07840EA090909F101001B
:100C30001FFA80F9F078040230790443012C35DB87
:100C4000B4F5FA6F32DA374600202880012007F821
:100C5000010B2888401C288004F0070040B1204682
:100C6000E11704EB5171C910491C01F0FF0805E0C0
:100C70002046E11704EB5171C1F3C70807F8018B57
:100C80002888401C2880002322464946384600F028
:100C90004DFA8246BAF1000F04D0504601F097FC9D
:100CA000834608E028884044288004E04FF0030B86
:100CB00001E04FF0030B5846BDE8F09F2DE9F05FCF
:100CC00006460D464FF0000B2888052847D170785E
:100CD0004FEA0029B07840EA090909F101001FFA3A
:100CE00080F9F078040230790443012C34DBB4F548
:100CF000FA6F31DA374600202880022007F8010B0E
:100D00002888401C288004F0070040B12046E117E5
:100D100004EB5171C910491C01F0FF0805E02046A1
:100D2000E11704EB5171C1F3C70807F8018B28885C
:100D3000401C288022464946384600F043FA824645
:100D4000BAF1000F04D0504601F041FC834608E0A0
:100D500028884044288004E04FF0030B01E04FF066
:100D6000030B5846BDE8F09F2DE9F04705460C46B9
:100D70004FF0000A2088052837D168784FEA00280C
:100D8000A87840EA080808F101001FFA80F8E8781E
:100D900006022E79012E25DB7D2E23DC2F46002036
:100DA0002080032007F8010B2088401C208070065B
:100DB000000E07F8010B2088401C208000233246DB
:100DC0004146384600F02EFA8146B9F1000F04D0B2
:100DD000484601F0FCFB824609E0208800EB460013
:100DE000208004E04FF0030A01E04FF0030A504670
:100DF000BDE8F0872DE9F04705460C464FF0000AA4
:100E00002088052837D168784FEA0028A87840EA7A
:100E1000080808F101001FFA80F8E878060228792E
:100E20000643012E24DB7D2E22DA2F46002020806F
:100E3000042007F8010B2088401C20807006000E5B
:100E400007F8010B2088401C208032464146384676
:100E500000F028FA8146B9F1000F04D0484601F0AD
:100E6000B6FB824609E0208800EB4600208004E0C3
:100E70004FF0030A01E04FF0030A5046BDE8F08747
:100E80002DE9FC5F04460D460020009028880A28C2
:100E90005DDB60784FEA002AA07840EA0A0A0AF18E
:100EA00001001FFA80FAE078060220790643607993
:100EB0004FEA002BA07940EA0B0B0BF101001FFA5F
:100EC00080FBE0790702207A0743607A0190012EC7
:100ED0003BDB7D2E39DC012F37DB792F35DC7900C8
:100EE0000198814231D101233A46594604F10A0062
:100EF00000F098F98146B9F1000F1ED1A0460020FC
:100F00002880172008F8010B2888401C28807006CC
:100F1000000E08F8010B2888401C28800023324668
:100F20005146404600F07EF98146B9F1000F04D1E8
:100F30002888022101FB06002880B9F1000F06D0A5
:100F4000484601F044FB009001E003200090009827
:100F5000BDE8FC9F70B505460C4606480288064968
:100F6000681CFFF78FF903480088401C2080002090
:100F700070BD0000EE000020D80100202DE9F843EC
:100F800004460F464FF000083888052829D16078BC
:100F90000502A0780543681C85B22079F0B9E07895
:100FA000FF2801D0E078C8B900208DF80100E07872
:100FB000FF2803D101208DF8000002E000208DF809
:100FC000000001231A462946684600F0AFF806469D
:100FD0004EB1304601F0FBFA804604E04FF00308C2
:100FE00001E04FF003084046BDE8F8832DE9F041E9
:100FF00004460F464FF000083888052812D1607863
:101000000502A0780543681C85B201231A462946CB
:10101000E01C00F007F9064636B1304601F0D7FA79
:10102000804601E04FF003084046BDE8F0812DE91D
:10103000F05F05460E464FF0000B3088052839DD7D
:1010400068780702A8780743781C87B2E87804021A
:101050002879044395F805A004F0070040B1204624
:10106000E11704EB5171C910491C01F0FF0805E0BC
:101070002046E11704EB5171C1F3C708012C16DBC0
:10108000B4F5F66F13DCD04511D101232246394661
:10109000A81D00F04BF88146B9F1000F04D0484676
:1010A00001F095FA834607E00520308004E04FF018
:1010B000030B01E04FF0030B5846BDE8F09F2DE90C
:1010C000F04704460E464FF0000A3088062828DB19
:1010D00060780702A0780743781C87B2E0780502A1
:1010E0002079054394F80590012D17DB782D15DC48
:1010F0006806000E484511D101232A463946A01D35
:1011000000F090F88046B8F1000F04D0404601F09E
:101110005EFA824607E00520308004E04FF0030AC3
:1011200001E04FF0030A5046BDE8F0872DE9F04793
:1011300005460E46904699464FF0000A0FFA88F48D
:1011400030B2002836DB06EB0800102832DC3046CF
:1011500007B2B9F1000F03D0B9F1010F29D115E0A1
:1011600011E0082C01DD082000E02046C2B2B9B22F
:10117000134801F053FF05F8010BA4F1080004B275
:1011800007F1080007B2002CEBDC12E00EE015F8C6
:10119000013B082C01DD082000E02046C2B2B9B2B4
:1011A000074801F050FFA4F1080004B2002CEEDC67
:1011B00000BF01E04FF0010A5046BDE8F087000093
:1011C000EA0000202DE9F04705460C4616464FF090
:1011D000000937B220B200281CDBA019102819DC46
:1011E00020461FFA80F812E0082F01DD082000E0F9
:1011F0003846C2B241460A4801F010FF05F8010B1B
:10120000A7F1080007B208F108001FFA80F8002FC4
:10121000EADC01E04FF001094846BDE8F087000034
:10122000EC000020F0B504460D4600206E1EB5B25D
:10123000002D30DBAE18082E2DDC184E3688A91B89
:1012400013B1012B26D111E00DE0154E36F81160D7
:10125000361204F8016B124E16F8116004F8016B97
:10126000491C561EB2B2002AEFDC13E010E014F85D
:10127000017B3E020A4F27F8116014F8016B37F822
:1012800011703E43064F27F81160491C561EB2B23A
:10129000002AECDC00E00120F0BD0000E8000020A6
:1012A000D800002030B503460020002917DB8D1838
:1012B000082D14DC0B4D2D884C1B0DE00A4D35F824
:1012C00014502D1203F8015B074D15F8145003F864
:1012D000015B641C551EAAB2002AEFDC00E001206D
:1012E00030BD0000D6000020C600002001210120F2
:1012F0000B4A12680AB1002011E00A4A12680AB1CA
:1013000000200CE0084A12680AB1002007E0074AF2
:101310001368074A1268521E934200D10220704798
:10132000CCF800208801002084010020F4F800207F
:10133000740100201EB50021002200920192029249
:10134000214A1268126802F0004282B10022009223
:101350001E4A526902F0800222B180221B4B5A6160
:1013600000229A609DE81C0080E81C001EBD164A01
:101370001268126802F40042B2B9134A1268126885
:1013800002F4807282B1104A1268126802F400728C
:1013900052B10D4A12681268C2F30D42111F0A4A77
:1013A00012689268019200E000210091064A1268DA
:1013B0000292054A1268D268034B1A609DE81C002D
:1013C00080E81C0000BFD1E7CC0100200090024063
:1013D00070B50446204600F02BF8064616B94FF0CB
:1013E000FF3070BD214630462269904705461DB149
:1013F000304600F0D1FA00262846F2E71CB507482F
:101400000068012100238022CDE9001004A10748D3
:1014100002F09CF801F010FD1CBD0000000000204F
:1014200073746172745F7461736B000061280008EB
:101430002DE9F04387B081460026002501A8FFF77B
:1014400079FF01A807C804AB07C3049887B2DDF889
:1014500014804FF4C1723946002000F0EDF90546C2
:1014600065B12C4608E0628908EB06016068FEF76A
:1014700009FF608906442468002CF4D14FF0004035
:10148000069908600648406900F0800020B180207D
:101490000349486100208860284607B0BDE8F08312
:1014A0000090024010B50248FFF792FF10BD000007
:1014B000100200204FF44070FFF73CF84FF47A71AF
:1014C000A820FFF733FB00F095F94FF4E13001F06D
:1014D0005BF9FFF793FF00BFFEE7000070B505461C
:1014E00005B970BD05F0030060B100BF00BF00BFCB
:1014F0002E48B0F8D000401C81B22C48A0F8D01083
:1015000000BFEEE7A5F1080429480068844205D32E
:1015100005F10C002749096888420CD900BF00BFBB
:1015200000BF2248B0F8D000401C81B21F48A0F88C
:10153000D01000BFD5E7207960B900BF00BF00BF61
:101540001A48B0F8D000401C81B21848A0F8D0105A
:1015500000BFC6E7204600F031F860B900BF00BF09
:1015600000BF1248B0F8D000401C81B20F48A0F86C
:10157000D01000BFB5E7002020710F4800688442FA
:1015800001D20D480460208809490988611A411A6E
:101590000648B0F8CC00401A81B20448A0F8CC103C
:1015A000204600F04DFA00BF9BE70000388F002076
:1015B00004010020080100200C0100202DE9F04169
:1015C0000446204600F0E8F80546208801F028F897
:1015D0000646608801F024F807462088B0F5205FB1
:1015E00010D86088B0F5205F0CD86088A84202D07F
:1015F0003888A84206D106480068864205D070881F
:10160000A84202D00020BDE8F0810120FBE70000E5
:10161000080100202DE9F0478046B8F1000F02D103
:101620000020BDE8F08708F1030020F0030085B238
:101630000C2D00D20C25B5F5205F01D8454501DA07
:101640000020EEE75148006800F0A6F806468DE05D
:10165000304600F0E5FF0446207900287ED121883D
:1016600006F10800081AA8427CD3218806F1080078
:10167000091A05F11400814233D306F10800284409
:101680001FFA80F900BF00BF484600F0C9FF0746B7
:1016900000213971218839807E80A4F800900120D2
:1016A00020713888B0F5205F04D0388800F0B8FF8A
:1016B000A0F8029000BF3648B0F8CC1005F1080041
:1016C000084481B23248A0F8CC10B0F8CE10B0F87F
:1016D000CC00814204DA2E48B0F8CC10A0F8CE102D
:1016E0001BE00120207100BF204600F055F828497A
:1016F000B1F8CC1022881144081A81B22448A0F80D
:10170000CC10B0F8CE10B0F8CC00814204DA2048FA
:10171000B0F8CC10A0F8CE1000BF1C48006884427E
:1017200015D11A48D0F800A004E0BAF8000000F083
:1017300077FF82469AF8040018B11648006882457F
:10174000F3D11248C0F800A000BF00BF00BF00BF27
:1017500000BF00BF00BF00BF00BF00E002E004F117
:1017600008005EE7304600F05BFF0688C5F52050B4
:10177000B0423FF66DAF0648B0F8C800401C81B2D9
:101780000348A0F8C81000204BE700000C0100201F
:10179000388F002008010020014602480088081AFE
:1017A00080B270470401002070B504460D4600BFAA
:1017B000082C00DB70BD00BF05B9FBE7034951F8F9
:1017C00024002946FFF7F2F900BFF3E71C3C0008AC
:1017D00070B5044600BF082C01DB002070BD00BFBF
:1017E000034951F82400FFF7F1F905462846F5E7CB
:1017F0001C3C00081CB501211020FEF7A5FE0120AD
:101800008DF8040000208DF806004FF40050009081
:1018100001208DF8070003208DF805006946054872
:10182000FEF7D6FD00BF4FF400510248FEF73BFE25
:1018300000BF1CBD001002402DE9FE4F82460D4640
:1018400090465746B8F1010F0AD0B8F1410F06D0C3
:10185000B8F5C17F0BD0B8F5207F7CD14AE000BF3E
:1018600042462946002000F07DF8044677E0002437
:1018700000200290A94600BF0720FFF7A9FF0646F7
:1018800036B914B1204600F087F80020BDE8FE8F7D
:10189000F81C20F00300C0F5807080B2484501DDDF
:1018A000484605E0F81C20F00300C0F5807080B2C7
:1018B00083460020CDE9008006F110003844C01CAA
:1018C00020F003015B464A46304600F0AAF800BF0C
:1018D00000BF00BF00BF0CB9344601E002980660AB
:1018E0000296A9EB0B001FFA80F90027B9F1000F4F
:1018F000C2DC34E0F81C20F00301E81C20F00300F7
:10190000084486B206F110001FFA80F9E81C20F0A6
:101910000300B04204D8E81C20F00300484501D978
:101920000020B3E74846FFF775FE04460CB90020D7
:10193000ACE70020CDE9008004F110003844C01C61
:1019400020F003012B462A46204600F06AF800BF2B
:1019500000BF04E0FFE700BF00BF002096E700BF24
:10196000204693E72DE9FC4106460C46174600BF8A
:1019700000BF0620FFF72CFF054615B90020BDE883
:10198000FC810020234622463146CDE900702846DE
:1019900000F047F82846F2E72DE9F047044624B95D
:1019A00000BF00BF0020BDE8F087002635E000BF83
:1019B00000BFA07B401E00F0FF0884F80E80B8F145
:1019C000000F28D12768207B00F00F05607B00F016
:1019D000020038B1A14600BF00BF2046D9F8101060
:1019E000884714E0022D04D121460720FFF7DCFED2
:1019F0000DE0012D04D121460620FFF7D5FE06E0BB
:101A00001DB92046FFF76AFD01E000BF00BF701C52
:101A1000C6B23C4600E0002400BF002CC7D13046CF
:101A2000C1E770B5DDE9044500260660416002812A
:101A3000438104734573012686730026C67370BD07
:101A40002DE9F041044600BF00BF00BF00BF00BF4A
:101A500000BF00BF00BF208800F0E2FD0546AC4299
:101A600019D02879B8B91B480068854213D01A48A4
:101A70000068A84201D1184804602888208028887E
:101A8000B0F5205F07D02046FFF786FE074628887E
:101A900000F0C6FD4780608800F0C2FD0646A64201
:101AA00015D0307998B90C480068A04201D10A4895
:101AB0000660208830802088B0F5205F07D030464F
:101AC000FFF76AFE0746208800F0AAFD4780BDE8C0
:101AD000F0810000080100200C0100202DE9F041F8
:101AE00005460E462648076826480068001D00F097
:101AF000FCFE50B92348006890F82C100120884063
:101B000021490968814320480160681CD8B9D6B1D1
:101B10001E4948681B49096888601A498268096833
:101B2000CA6018490968091D826851601549096829
:101B3000091D8160154A134909684A6111460968FF
:101B4000491C11601AE07C190E4800684460BC42D0
:101B500007D20C480168091D0D48006800F0F0FE2E
:101B60000CE008480168091D0A48006800F0E8FE1A
:101B700009480068844201D207480460BDE8F0814A
:101B800078010020640100207C010020F4F800208E
:101B90006C010020680100209401002010B504466B
:101BA00000F0F4FE2F480068401C2E4908602E48C3
:101BB000006840B92C4804600846006801280DD12F
:101BC00000F02CFA0AE02948006838B92648006875
:101BD000C06AE16A884201D823480460244800684A
:101BE000401C2349086094F82C10012088402149AA
:101BF000096808431F490860E16A01EB81011E4A38
:101C000002EB81014868A0608268E260211D826861
:101C100051608160E16A01EB8101174A02EB8102A8
:101C20006261E16A01EB8101134A52F82110491CFB
:101C3000E26A02EB8202104B43F8221000F0D0FE61
:101C40000A48006868B108480068C06AE16A8842CA
:101C500007D24FF0805009490860BFF34F8FBFF3A0
:101C60006F8F10BD740100206401002080010020EE
:101C7000900100207C01002040F8002004ED00E0ED
:101C800010B500F083FE0C48006890B90B4800F0D6
:101C900047FE0B4800F044FE08480A49086008481F
:101CA0000949086000221021052001F0B1FA02491B
:101CB000086000F095FE10BDAC01002008F900207E
:101CC0001CF90020A4010020A801002010B516E096
:101CD00000F05CFE0C48C068C468201D00F005FEE2
:101CE0000A480068401E0949086009480068401E0B
:101CF0000749086000F074FE204600F05FF80448D1
:101D000000680028E4D110BDE0F800207401002034
:101D10007001002070B504460D46206C70B1216C36
:101D2000E0680144E160D4E90210884201D32168EF
:101D3000E1602846226CE168FEF7A4FA70BD2DE947
:101D4000F04104460F4615464FF00008A66B206C84
:101D500048B9206800282CD1A06801F01FFD8046FA
:101D60000020A06025E07DB93946226C6068FEF74E
:101D700089FA216C606808446060D4E901018842F6
:101D800017D32068606014E03946226CE068FEF7E3
:101D900079FA216CE068411AE1602168E0688842C4
:101DA00003D2216CA068411AE160022D01D106B175
:101DB000761E701CA0634046BDE8F08110B5044655
:101DC000206B00F02BFE204600F028FE10BD000026
:101DD000002101220C4B1B68012B00D901210B4A69
:101DE0001268D26A0AB100200DE0094A1268012A7D
:101DF00001D9002007E009B1002004E0054A12687B
:101E0000054B1B68D01A70477C010020640100203C
:101E100040F8002094010020780100200146084A83
:101E2000126812680AB9012200E000220A600A68FA
:101E300022B9034A1268D268106800E00020704797
:101E4000A401002030B54FF4D043154800F007043A
:101E50002CB1C01D20F00700114C041B1B1B0246B7
:101E6000104C226000240F4D6C60D018083820F010
:101E700007000D4C206000240B4D2D686C600A4D4E
:101E80002D682C601146441A4C60074C24680C6085
:101E9000064D4C682C60064D4C682C6030BD00002F
:101EA0004090002030010020380100204001002037
:101EB0003C01002000BFFFF709FF19480068012816
:101EC00007D94FF0805017490860BFF34F8FBFF319
:101ED0006F8FFFF77DFF0446022C20D301F050F8EE
:101EE0001148006811490968884201D3012000E0C7
:101EF000002050B900BFA02080F31188BFF34F8F9E
:101F0000BFF36F8F00BF00BFFEE7FFF761FF04461E
:101F1000022C02D3204600F0E9FD01F049FDCAE79A
:101F200040F8002004ED00E094010020780100203A
:101F30002DE9F04106460D4617469846069C0DB918
:101F4000246000E02760E66325640121204601F05B
:101F500093F90020A064BDE8F0812DE9FF5F814680
:101F60000F469246DDE90E6B109CAAF10100216B31
:101F700001EB800828F0070808F0070008B90120E5
:101F800000E0002050B900BFA02080F31188BFF30B
:101F90004F8FBFF36F8F00BF00BFFEE77FB10025FB
:101FA00007E0795D04F134004155785D00B902E045
:101FB0006D1C0A2DF5D300BF00213D200155052ED3
:101FC00001D2012000E0002050B900BFA02080F322
:101FD0001188BFF34F8FBFF36F8F00BF00BFFEE7C5
:101FE000052E00D30426E6622664201D00F0A5FC21
:101FF00004F1180000F0A1FC2461C6F10500A06105
:10200000646249464046039A00F0A8FB2060BBF199
:10201000000F01D0CBF80040BDE8FF9F10B50024B1
:1020200007E004EB84010F4A02EB810000F078FC2A
:10203000641C052CF5D30C4800F072FC0B4800F032
:102040006FFC0B4800F06CFC0A4800F069FC0A4881
:1020500000F066FC04480949086004480849086023
:1020600010BD000040F80020A4F80020B8F80020BF
:10207000CCF80020E0F80020F4F8002068010020EF
:102080006C01002010B50146164800E000680368A6
:102090008B42FBD30246436813448B4204D143680E
:1020A0004C682344436001460A464B681344046865
:1020B000A34211D10C4C03682468A34208D04B689A
:1020C0000468646823444B6003681B680B6005E088
:1020D000054B1B680B6001E003680B60884200D071
:1020E000016010BD30010020380100202DE9F041D1
:1020F00004460D4616461F464FF0000865602461F1
:10210000B5420CD8F01BA169884202D34FF00108F8
:1021100011E0211D0948006800F012FC0BE0BE42EE
:1021200004D2BD4202D34FF0010804E0211D04484F
:10213000006800F005FC4046BDE8F081A8010020E1
:10214000A401002070B5054600F020FCA86B08B97A
:10215000012400E0002400F043FC204670BDF1B5EE
:102160000098846C002654B900BFA02080F3118829
:10217000BFF34F8FBFF36F8F00BF00BFFEE7A06BB1
:10218000E16B884201D2012000E0002050B900BF7D
:10219000A02080F31188BFF34F8FBFF36F8F00BF74
:1021A00000BFFEE7A06BE16B884232D294F9455044
:1021B000002269462046FFF7C2FD0646681C60B94A
:1021C000606A08B9012000E0002008BB04F1240087
:1021D00001F05CFBE0B101261AE000F09BFB074632
:1021E000BD4214D27F2D01D0012000E0002050B963
:1021F00000BFA02080F31188BFF34F8FBFF36F8F14
:1022000000BF00BFFEE7681C40B284F8450000BF75
:1022100000BF3046F8BD000070B505460E460E48BA
:102220000068C068C468201D00F05FFB94F82400BB
:1022300000F0040028B132462946204600F0EEF8AE
:1022400005E094F8240000F0FE0084F82400204605
:10225000216A884770BD0000A401002070B586B0D7
:1022600094E00298002811DA03AE56B900BFA0200E
:1022700080F31188BFF34F8FBFF36F8F00BF00BF94
:10228000FEE7D6E90020B168904700BF0298002819
:102290007CDB049C606908B9012000E0002010B9D3
:1022A000201D00F022FB01A800F0E4F8054602988A
:1022B0000A2869D2DFE800F06805072E36580608BC
:1022C0002F3700BF00BF00BF94F8240040F001008A
:1022D00084F824000398A269811803462A46204600
:1022E000FFF704FFA8B194F8240000F0040038B10F
:1022F0000398A26981182A46204600F08FF805E06D
:1023000094F8240000F0FE0084F824002046216A9E
:1023100088473AE000BF94F8240000F0FE0084F8FB
:10232000240032E000BF94F8240040F0010084F85B
:1023300024000398A061A06908B1012000E00020FA
:1023400050B900BFA02080F31188BFF34F8FBFF3B7
:102350006F8F00BF00BFFEE7A06941192B462A46D8
:102360002046FFF7C3FE10E094F8240000F00200BE
:1023700018B9204600F052FB05E094F8240000F064
:10238000FE0084F8240000E000BF00BF002202A984
:102390000448006800F0DEFF00287FF462AF06B05A
:1023A00070BD0000AC010020F8B505460C4600F0F9
:1023B000E7FD684600F05EF80646009820BB44B989
:1023C000B54206D801F0F4FA31462846FFF724FF5B
:1023D0001CE03CB10E480068006808B9012000E02C
:1023E00000200446A91B22460A48006800F020FC91
:1023F00001F0DEFA50B94FF0805007490860BFF392
:102400004F8FBFF36F8F01E001F0D2FAF8BD0000EB
:10241000A8010020AC01002004ED00E070B50446E6
:102420000D46164604E0A06905442046216A884707
:10243000A06941192B4632462046FFF757FE002877
:10244000F1D170BD09480068006808B9012000E0BA
:10245000002020B14FF0FF300549086005E0034837
:102460000068C06800680249086070476801002081
:102470009401002070B5044601F0ACF80546074809
:102480000068854204D200F00BF80120206001E0D2
:102490000020206001480560284670BDB40100207E
:1024A00070B508E00D480068C06804684FF0FF315F
:1024B0002046FFF7B1FE09480068006808B901200E
:1024C00000E000200028EDD00448056804480068BA
:1024D000024908600248056070BD0000A4010020A8
:1024E000A80100200E480068401C08B9012000E047
:1024F000002050B900BFA02080F31188BFF34F8F98
:10250000BFF36F8F00BF00BFFEE700BFA02080F3C6
:102510001188BFF34F8FBFF36F8F00BF00BFFEE77F
:102520004C01002008B500BF6846FFF777FC044661
:1025300020460099FFF738FFFFF790FEF4E770B5EB
:10254000044600F023FA94F9455019E0A06C30B12C
:102550002046FFF704FE88B100F01AFC0EE0606A26
:1025600008B9012000E0002038B904F1240001F08E
:102570008DF918B100F00CFC00E003E0681E45B2D4
:10258000002DE3DC00BFFF2084F8450000F028FAAE
:1025900000F0FCF994F9445010E0206908B90120DA
:1025A00000E0002048B904F1100001F06FF908B113
:1025B00000F0EEFB681E45B200E001E0002DECDC0F
:1025C00000BFFF2084F8440000F00AFA70BD014605
:1025D00021B1012904D0072906D103E0002005E03C
:1025E000022003E0062001E0042000BF00BF704786
:1025F00010B502480068804710BD00002800002088
:1026000010B502480068804710BD00002C00002073
:1026100010B502480068804710BD0000300000205F
:102620000146024800680844704700000401002089
:102630002DE9F04705464FF0000900F0A1FC4248A3
:10264000006808B9FFF7FEFB75B105F00700C0F19F
:102650001008C8F1FF30A84201D2012000E000209C
:1026600008B9454400E00025012000EBE570002892
:1026700053D0002D51D03548006885424DD8344E96
:102680003046046801E0264624686068A84202D209
:1026900020680028F7D12C48006884423DD030687B
:1026A00000F10809206830606068401B102819D9C3
:1026B000671907F0070008B9012000E0002050B9B1
:1026C00000BFA02080F31188BFF34F8FBFF36F8F3F
:1026D00000BF00BFFEE76068401B78606560384659
:1026E000FFF7D0FC194960680968081A17490860A3
:1026F0000846006817490968884203D213480068F1
:1027000014490860606840F000406060002020606C
:1027100011480068401C1049086001F049F909F0AF
:10272000070008B9012000E0002050B900BFA02038
:1027300080F31188BFF34F8FBFF36F8F00BF00BFCF
:10274000FEE74846BDE8F087380100203C01002044
:10275000300100204001002044010020001F4FF004
:1027600080730360001F21F001030360001F054B0D
:10277000036014380260001F6FF00203036020380A
:1027800070470000E524000810B588B00446022018
:102790008DF81C008DF81D0000208DF81E00012012
:1027A0008DF81F0001210820FDF7CEFE072205212C
:1027B0002248FDF755FE2020069006A91F48FDF788
:1027C00007FE01210820FDF7BFFE072206211B4856
:1027D000FDF746FE4020069006A91848FDF7F8FDD3
:1027E00001214804FDF7C0FE02940020ADF80C0062
:1027F000ADF80E00ADF81000ADF814000C20ADF8E7
:10280000120002A90E48FEF70BF926208DF80400ED
:1028100001208DF8050000208DF8060001208DF8BC
:10282000070001A8FDF74AFE01210548FEF7C1F89F
:10283000FF2000F007F808B010BD0000000C0240B7
:10284000004400400549088000BF0449091F098869
:1028500001F040010029F8D0704700000444004016
:102860001CB504460C480068022100238022CDE9F3
:1028700000100AA10B4800F069FE0B480068032114
:1028800000238022CDE9001008A10A4800F05EFE76
:10289000002000F0F3F91CBD040000207461736B8C
:1028A00031000000B9280008080000207461736B33
:1028B00032000000D92800080AE000BF4FF40051A0
:1028C0000448FDF7F2FD00BF4FF4FA70FEF724F95B
:1028D000F3E700000010024006E0AA20FFF7B2FF75
:1028E0004FF4FA70FEF718F9F7E701460A69D1E9E3
:1028F00001309860D1E9010358605068884201D1E5
:1029000088685060002008611068401E10601068E0
:102910007047000001480068704700007401002003
:1029200000F1080141604FF0FF31816000F10801C2
:10293000C1600161002101607047002101617047A1
:1029400010B502460B685C1C0CB9106907E002F177
:10295000080000E04068446824689C42FAD9446852
:102960004C604C68A160886041600A611468641C16
:10297000146010BD42684A6093688B609368596028
:102980009160086103685B1C0360704700BFA02072
:1029900080F31188BFF34F8FBFF36F8F00BF0E48D6
:1029A0000068401C0C49086008460068012812D1E4
:1029B0000A480068C0B208B9012000E0002050B900
:1029C00000BFA02080F31188BFF34F8FBFF36F8F3C
:1029D00000BF00BFFEE770474C01002004ED00E09F
:1029E0000D48006850B900BFA02080F31188BFF3E4
:1029F0004F8FBFF36F8F00BF00BFFEE70648006830
:102A0000401E054908600846006820B9002080F390
:102A1000118800BF00BF70474C01002070B506460A
:102A20003546002E3BD0083D2C466068C00F50B99B
:102A300000BFA02080F31188BFF34F8FBFF36F8FCB
:102A400000BF00BFFEE7206808B9012000E00020B9
:102A500050B900BFA02080F31188BFF34F8FBFF3A0
:102A60006F8F00BF00BFFEE76068C00FB8B120687D
:102A7000A8B9606820F00040606000F081FA084961
:102A8000606809680844064908602046FFF7FAFABA
:102A900004480068401C0349086000F089FF70BDCD
:102AA0003C010020480100200C480D490860084600
:102AB00000686FF07F41B1FBF0F00A4908605E20CA
:102AC0000949086000204FF0E0210861886103484F
:102AD000401E48610720086170470000D8B8050013
:102AE0005001002054010020580100202DE9F0473A
:102AF00004464B480068844201D94948046872B6CC
:102B0000BFF34F8FBFF36F8FFEF7F0FB08B962B6CC
:102B100083E006204FF0E0210861084687690FB97D
:102B200040480768601E3F49096801FB00753E4840
:102B3000006800F0806030B14FF000703A490860E2
:102B4000384800682D1A39480068854202D937484C
:102B500000682D1A4FF0E020456100204FF0E02181
:102B600088610846006940F001000861A146B9F19A
:102B7000000404D0BFF34F8F30BFBFF36F8F62B636
:102B8000BFF34F8FBFF36F8F72B6BFF34F8FBFF39B
:102B90006F8F06204FF0E02108610846006900F4BD
:102BA0008030B8B11F490968491E4FF0E022926990
:102BB000AA1A881A1D490968884203D9194909685F
:102BC000884202D917490968481E4FF0E021486140
:102BD000661E14E04FF0E0208769124800686043E9
:102BE000A0EB07080F480068B8FBF0F6701C0D4911
:102BF00009684843A0EB08004FF0E021486100203D
:102C00004FF0E02188610720086106480068401EF7
:102C10004861304600F05EF962B6BDE8F08700001A
:102C2000540100205001002004ED00E05801002074
:102C30002DE9F04105460E4617462C46FFF7A6FE45
:102C400094F94400401C10B9002084F8440094F921
:102C50004500401C10B9002084F84500FFF7C0FE75
:102C6000A06B28B93A46314604F1240000F0B2F8CE
:102C70002046FFF764FCBDE8F081000070B5054612
:102C8000FFF784FE15B93248006800E02846044684
:102C9000201DFFF72AFE78B9E06A00EB80002D497D
:102CA00051F8200040B994F82C10012088402A499E
:102CB0000968814328480160A06A18B104F118002E
:102CC000FFF713FE25480068401C2449086020488F
:102CD0000068844209D1211D2148FFF74BFE21489D
:102CE0000068401C1F49086006E01F480068401E3D
:102CF0001D490860FFF7A6FBFFF772FE1448006845
:102D0000844202D02046FFF759F818480068E8B11D
:102D10000F480068844219D11548006808B901209D
:102D200000E0002050B900BFA02080F31188BFF35D
:102D30004F8FBFF36F8F00BF00BFFEE74FF0805093
:102D40000C490860BFF34F8FBFF36F8F70BD000059
:102D50006401002040F800207C0100209001002048
:102D6000E0F80020700100207401002080010020A4
:102D7000A001002004ED00E0034909680160034957
:102D800009684160704700008C0100207801002034
:102D900001200149086070478801002070B5044691
:102DA0000D4654B900BFA02080F31188BFF34F8FA8
:102DB000BFF36F8F00BF00BFFEE705480168183101
:102DC0002046FFF7BDFD01212846FEF787FE70BDB6
:102DD0006401002070B504460E46154654B900BF84
:102DE000A02080F31188BFF34F8FBFF36F8F00BF18
:102DF00000BFFEE760680F490968C8610D49826835
:102E000009680A620B4909681831826851600949EA
:102E1000096818318160074909688C622168491C7A
:102E200021600DB14FF0FF3629463046FEF756FEC1
:102E300070BD0000640100201CB51E4800210B4637
:102E40007822CDE900101CA11D4800F07FFB04464C
:102E5000012C02D100F068FE0446012C15D100BF00
:102E6000A02080F31188BFF34F8FBFF36F8F00BF97
:102E70004FF0FF301349086001201349086000201B
:102E80001249086000F010F910E0601C08B1012040
:102E900000E0002050B900BFA02080F31188BFF3EC
:102EA0004F8FBFF36F8F00BF00BFFEE70848006879
:102EB0001CBD00009801002049444C450000000062
:102EC000B51E000894010020800100207801002038
:102ED0009C01002010B5044625480068204425497F
:102EE0000968884201D8012000E0002050B900BFE5
:102EF000A02080F31188BFF34F8FBFF36F8F00BF07
:102F000000BFFEE71A48006820441A490968884251
:102F100027D11948006850B900BFA02080F311885C
:102F2000BFF34F8FBFF36F8F00BF00BFFEE70CB141
:102F3000012000E0002050B900BFA02080F31188DC
:102F4000BFF34F8FBFF36F8F00BF00BFFEE7FFF7E8
:102F50001DFD0A480068401C08490860FFF740FD55
:102F6000641E0348006820440149086010BD000049
:102F70007801002094010020A0010020840100209D
:102F800002480068401C014908607047A001002009
:102F90001D48006818B101201C49086032E000207B
:102FA0001A4908601A480068B0FA80F0C0F11F01A1
:102FB00001EB8100174A52F8200008B1012000E01F
:102FC000002050B900BFA02080F31188BFF34F8FBD
:102FD000BFF36F8F00BF00BFFEE701EB81020D4B17
:102FE00003EB820042685268426000F108024368C5
:102FF000934202D14268526842604268D268064BEE
:103000001A6000BF70470000A00100208801002066
:103010007C01002040F8002064010020F0B5034648
:103020000C461546E208A4EBC20087B20120A84076
:10303000401E86B2995C501C185C41EA002139415F
:103040003140C8B2F0BD2DE9F043044615461F4695
:10305000C808A1EBC0081FFA88FC07FA0CF81FFA91
:1030600088F74FF0010808FA05F8A8F101081FFADF
:1030700088F6A1EBC00806FA08F81FFA88F6225C69
:1030800000F1010814F8088042EA082222EA060842
:1030900048EA070222544FEA222900F1010804F805
:1030A0000890BDE8F08300001CB552480068524902
:1030B000884201D0012000E0002050B900BFA020CC
:1030C00080F31188BFF34F8FBFF36F8F00BF00BF36
:1030D000FEE7484800684849491E884201D001205F
:1030E00000E0002050B900BFA02080F31188BFF39A
:1030F0004F8FBFF36F8F00BF00BFFEE73F49084609
:1031000000780190FF200A46107008460078009071
:103110009DF8000000F0E0009DF80020904201D1F1
:10312000012000E0002050B900BFA02080F31188EA
:10313000BFF34F8FBFF36F8F00BF00BFFEE79DF857
:10314000000000F0A0002E4A107007202D4A1060E9
:1031500009E02C480068401E2A4A10609DF80000D3
:103160004006000E00909DF8000000F080008028CE
:10317000EFD024480068C0F10700032801D10120E6
:1031800000E0002050B900BFA02080F31188BFF3F9
:103190004F8FBFF36F8F00BF00BFFEE71948006875
:1031A0000002184A10601046008800F4E0601060C9
:1031B000124A019810700F482030006840F46000F7
:1031C0000C49203108600846006840F06040086003
:1031D000FFF76AFC00200C490860FDF705F80B4872
:1031E000006840F0404009490860FCF7E9FF002012
:1031F0001CBD000000ED00E071C20F4100E400E0E2
:103200005C010020600100204C01002034EF00E050
:103210002DE9F84305460E4617460024E5B1601E29
:10322000B0FBF5F0B04217D305FB06F010F14D0FDF
:1032300012D805FB06F808F14C00FFF7F9F904462F
:10324000B4B1A14609F14C093B464A4631462846ED
:103250000094FEF76DFE0BE054B900BFA02080F390
:103260001188BFF34F8FBFF36F8F00BF00BFFEE722
:103270002046BDE8F88300002DE9F04105460E46E2
:1032800001272C4654B900BFA02080F31188BFF35A
:103290004F8FBFF36F8F00BF00BFFEE7002C42D0FF
:1032A000E06B00283FD04FF0FF31E06BB1FBF0F056
:1032B000216C884237D3FFF769FBD4E90F122068ED
:1032C00001FB0200A0600020A06320686060E06B4A
:1032D000401E226C216800FB0211E160FF2084F88F
:1032E000440084F845009EB9206908B9012000E037
:1032F0000020A8B904F1100000F0C8FA80B14FF026
:10330000805013490860BFF34F8FBFF36F8F07E002
:1033100004F11000FFF704FB04F12400FFF700FBA9
:10332000FFF75EFB00E000270FB1012000E0002066
:1033300050B900BFA02080F31188BFF34F8FBFF3B7
:103340006F8F00BF00BFFEE73846BDE8F081000088
:1033500004ED00E02DE9F74183B005460E464FF03D
:1033600000082C4654B900BFA02080F31188BFF399
:103370004F8FBFF36F8F00BF00BFFEE70EB9206C09
:1033800008B9012000E0002050B900BFA02080F360
:103390001188BFF34F8FBFF36F8F00BF00BFFEE7F1
:1033A00000F008F908B9059808B9012000E00020EC
:1033B00050B900BFA02080F31188BFF34F8FBFF337
:1033C0006F8F00BF00BFFEE700BFFFF7DFFAA76BFC
:1033D000F7B131462046FEF79DFC781EA0632069B8
:1033E00008B9012000E0002060B904F1100000F0ED
:1033F0004DFA38B14FF080502F490860BFF34F8F1E
:10340000BFF36F8FFFF7ECFA012006B0BDE8F08143
:10341000059818B9FFF7E4FA0020F6E7B8F1000FB5
:1034200004D101A8FFF7A8FC4FF00108FFF7D8FA74
:10343000FFF7A6FDFFF7AAFA94F94400401C10B963
:10344000002084F8440094F94500401C10B9002085
:1034500084F84500FFF7C4FA05A901A800F02EF88A
:10346000F0B92046FEF76EFEA0B104F124000599E4
:10347000FFF794FC2046FFF762F800F099FA002865
:10348000A3D14FF080500C490860BFF34F8FBFF3BA
:103490006F8F9AE72046FFF752F800F089FA94E719
:1034A0002046FFF74CF800F083FA2046FEF74AFE6C
:1034B00000288AD00020A8E704ED00E070B505469A
:1034C0000C4655B900BFA02080F31188BFF34F8F81
:1034D000BFF36F8F00BF00BFFEE754B900BFA0204D
:1034E00080F31188BFF34F8FBFF36F8F00BF00BF12
:1034F000FEE7FFF74BFA134802686868131A206862
:10350000401C08B9002619E00F492868096888425C
:1035100006D06868904203D80126002020600DE0A4
:103520002068984207D92068C01A20602846FFF713
:1035300023FC002602E0002020600126FFF750FA5D
:10354000304670BD780100208C0100202DE9FF4F2E
:1035500085B0804689461746DDE912ABB800FFF713
:1035600067F8064676B15020FFF762F804462CB1A2
:1035700050212046FCF7ADFE266304E03046FFF7FD
:103580004DFA00E000247CB10020CDE900ABCDE98C
:1035900002403A4649464046089BFEF7DEFC20467C
:1035A000FEF7FCFA012501E04FF0FF35284609B08F
:1035B000BDE8F08F0549096809B9012005E0044913
:1035C000096809B9022000E000207047800100204E
:1035D000A001002001490868704700007801002020
:1035E0002DE9F0414FF000086148006800287DD1C6
:1035F00060480068451C5F48056015BB5E48006870
:10360000006808B9012000E0002050B900BFA020E8
:1036100080F31188BFF34F8FBFF36F8F00BF00BFE0
:10362000FEE7554807685548006853490860534805
:10363000076053480068401C51490860FEF702FFCC
:1036400000BF50480068854277D300BF4A480068F1
:10365000006808B9012000E0002020B14FF0FF30E1
:103660004849086068E044480068C068C468666803
:10367000B54202D2434806605EE06069D4E90212B6
:103680008A60D4E902214A60211D42688A4201D140
:10369000E1684160002262610168491E0160A06A20
:1036A00098B1A06AD4E907128A60D4E907214A6078
:1036B00004F1180142688A4201D1216A4160002266
:1036C000A2620168491E016000BF94F82C1001201D
:1036D00088402D49096808432B490860E16A01EBDD
:1036E00081012A4A02EB8101486800E037E0A060CE
:1036F0008268E260211D826851608160E16A01EBAD
:103700008101224A02EB81026261E16A01EB8101DF
:103710001E4A52F82110491CE26A02EB82021B4B3E
:1037200043F822101A49E06A0968C96A88428DD9AB
:103730004FF001088AE700E000BF15480068C06A42
:1037400000EB8000114951F82000012801D94FF009
:1037500001081048006808B14FF0010804E00E4865
:103760000068401C0C4908604046BDE8F08100003C
:10377000A001002078010020680100206C010020D9
:103780008C010020940100207C01002040F80020E2
:1037900064010020880100208401002070B50546E6
:1037A0002C460026002D68D035480068844201D19F
:1037B000012000E0002050B900BFA02080F3118854
:1037C000BFF34F8FBFF36F8F00BF00BFFEE7606C8A
:1037D00050B900BFA02080F31188BFF34F8FBFF313
:1037E0006F8F00BF00BFFEE7606C401E6064216CFD
:1037F000E06A884241D0606C00283ED1201DFFF76E
:1038000074F840B994F82C10012088401D490968CB
:1038100081431C480160206CE062E06AC0F1050051
:10382000A06194F82C1001208840164909680843CB
:1038300014490860E16A01EB8101134A02EB81013E
:103840004868A0608268E260211D826851608160E2
:10385000E16A01EB81010C4A02EB81026261E16ADB
:1038600001EB8101084A52F82110491CE26A02EB7F
:103870008202054B43F822100126304670BD00003D
:10388000640100207C01002040F8002070B506464D
:10389000F068C46854B900BFA02080F31188BFF35A
:1038A0004F8FBFF36F8F00BF00BFFEE7A06AD4E960
:1038B00007128A60D4E907214A6004F118014268BE
:1038C0008A4201D1216A41600022A2620168491E38
:1038D00001603148006800283FD16069D4E90212D4
:1038E0008A60D4E902214A60211D42688A4201D1DE
:1038F000E1684160002262610168491E016094F83C
:103900002C10012088402549096808432349086094
:10391000E16A01EB8101224A02EB81014868A06063
:103920008268E260211D826851608160E16A01EB7A
:1039300081011B4A02EB81026261E16A01EB8101B4
:10394000174A52F82110491CE26A02EB8202144B1A
:1039500043F82210FEF776FD10E012494868E06156
:103960008268226204F118018268516081600D4A08
:10397000A26211460968491C116000BF0A49E06A49
:103980000968C96A884204D90125012007490860ED
:1039900000E00025284670BDA00100207C01002029
:1039A00040F80020CCF800206401002088010020AD
:1039B00070B5002400265348006850B900BFA0200D
:1039C00080F31188BFF34F8FBFF36F8F00BF00BF2D
:1039D000FEE7FEF7DBFF4B480068401E49490860E0
:1039E0000846006800287DD147480068002879D043
:1039F0005BE04648C068C468A06AD4E907128A60E0
:103A0000D4E907214A6004F1180142688A4201D1D1
:103A1000216A41600022A2620168491E016060695A
:103A2000D4E902128A60D4E902214A60211D426869
:103A30008A4201D1E1684160002262610168491E49
:103A4000016094F82C10012088403149096808432E
:103A50002F490860E16A01EB81012E4A02EB8101E6
:103A60004868A0608268E260211D826851608160C0
:103A7000E16A01EB8101274A02EB81026261E16A9E
:103A800001EB8101234A52F82110491CE26A02EB42
:103A90008202204B43F822101F49E06A0968C96A74
:103AA000884202D301201D4908601848006808B9FF
:103AB000012000E0002000289BD00CB1FEF7C2FCE2
:103AC0001748056865B100BFFFF78AFD10B10120F6
:103AD000124908606D1E002DF6D1002010490860C3
:103AE0000E4800E009E0006838B1012630070D49B2
:103AF0000860BFF34F8FBFF36F8FFEF771FF304643
:103B000070BD0000A001002074010020CCF800204E
:103B10007C01002040F80020640100208801002082
:103B20008401002004ED00E01CB50024FEF7A8F895
:103B30000D48006850B10D48042100237822CDE9DA
:103B400000100BA10C48FFF701FD044654B900BF5B
:103B5000A02080F31188BFF34F8FBFF36F8F00BF9A
:103B600000BFFEE720461CBDAC010020B0010020D4
:103B7000546D72205376630025250008483C0008E8
:103B8000B40200201C0003005C0200201001002091
:103B90003C3C0008480A002020003C00C4020020F1
:103BA000140100205C3C0008C40B002018000F002A
:103BB000580A002018010020503C0008C80C0020C2
:103BC00008001E00D40B00201C010020843C0008CB
:103BD0005C0D002010000800D80C002020010020FF
:103BE000903C0008800E0020100011006C0D002099
:103BF00024010020743C0008940F002010001000E5
:103C0000900E002028010020683C0008288F00202A
:103C100010017800A40F00202C0100207C3B00083C
:103C2000903B0008A43B0008B83B0008CC3B0008D0
:103C3000E03B0008F43B0008083C000852454153B3
:103C400053444154410000005241575F50434200E9
:103C50004152505F5155455545000000465241477D
:103C60005F50425546000000504255465F504F4F4E
:103C70004C000000504255465F5245462F524F4D72
:103C80000000000049474D505F47524F555000001B
:103C90005359535F54494D454F555400BC3C00089F
:103CA00000000020D80100000C030008383D000887
:103CB000D801002058170100080B00080112022942
:103CC00002321113550F33080413F50D3308031A8C
:103CD0006908321013BF103308061AED203217138B
:103CE000810E330801130F0C3308051A7D18320FAB
:103CF0001A2F2829721ABD18013B180F1001100243
:103D00001003100410051006100781180D7B148E87
:103D10003F7B140E40B81E55400C22400C28010277
:103D200001DB01351AAA01014C021F042D01020317
:083D3000040405100607080950
:040000050800018965
:00000001FF
