:020000040800F2
:100000005019012061020008CB090008C30900084B
:10001000C709000863030008350F0008000000004E
:10002000000000000000000000000000A101000826
:100030007508000800000000FD010008950C00088C
:100040007B0200087B0200087B0200087B0200089C
:100050007B0200087B0200087B0200087B0200088C
:100060007B0200087B0200087B0200087B0200087C
:100070007B0200087B0200087B0200087B0200086C
:100080007B0200087B0200087B0200087B0200085C
:10009000690300087B0200087B0200087B0200085D
:1000A0007B0200080D0D00087B0200087B0200089F
:1000B000390D00087B0200087B0200087B02000863
:1000C0007B0200087B0200087B0200087B0200081C
:1000D0007B0200087B0200087D0D00087B020008FF
:1000E0007B0200087B0200087B0200087B020008FC
:1000F0007B0200087B0200087B0200087B020008EC
:100100007B0200087B0200087B0200087B020008DB
:100110007B0200087B0200087B0200087B020008CB
:100120007B0200087B0200087B0200087B020008BB
:100130007B020008B90800087B0200087B02000867
:10014000810300087B0200087B0200087B02000894
:100150007B0200087B0200087B0200087B0200088B
:100160007B0200087B0200087B0200087B0200087B
:100170007B0200087B0200087B0200087B0200086B
:100180007B0200087B020008DFF810D000F0ACF81A
:1001900000480047F91A0008AFF300805019012009
:1001A0002C4B19680868B0E8F04F80F30988BFF35A
:1001B0006F8F4FF0000080F311887047000000003F
:1001C00008480068006880F308884FF0000080F35A
:1001D000148862B661B6BFF34F8FBFF36F8F00DF35
:1001E00000BF00BF08ED00E0DFF80C00016841F43B
:1001F00070010160704700BF88ED00E0EFF30980F7
:10020000BFF36F8F134B1A681EF0100F08BF20ED5D
:10021000108A20E9F04F106009B44FF0A00080F37D
:100220001188BFF34F8FBFF36F8F02F0B5FF4FF010
:10023000000080F3118809BC19680868B0E8F04F25
:100240001EF0100F08BFB0EC108A80F30988BFF3CE
:100250006F8F70475C010020EFF30580704700004E
:100260000648804706480047FEE7FEE7FEE7FEE750
:10027000FEE7FEE7FEE7FEE7FEE7FEE7A50C000867
:100280008901000810B5431A934209D283188818CF
:1002900003E010F8011D03F8011D521EF9D210BD34
:1002A00040EA01039B0703D009E008C9121F08C0F8
:1002B000042AFAD203E011F8013B00F8013B521E78
:1002C000F9D210BDD2B201E000F8012B491EFBD2D9
:1002D00070470022F6E710B513460A460446194651
:1002E000FFF7F0FF204610BD064C074D06E0E06822
:1002F00040F0010394E8070098471034AC42F6D36D
:10030000FFF746FFE03B0008003C000870B58C1882
:1003100010F8015B15F0070301D110F8013B2A1119
:1003200006D110F8012B03E010F8016B01F8016B06
:100330005B1EF9D12B0705D40023521E0DD401F802
:10034000013BFAE710F8013BCB1A921C03E013F8CB
:10035000015B01F8015B521EF9D5A142D8D3002000
:1003600070BD00BFFEE7000010B5034A002103483E
:1003700000F029F910BD0000E401002000640040F5
:1003800010B5034A0021034800F01DF910BD00001C
:10039000E40100200068004010B50021837A0122AA
:1003A00002FA03F13D4A126842F001023B4B1A6027
:1003B0003A4A1C3212688A43384B1C331A60027B5B
:1003C000CAB9364A0C3212688A43344B0C331A606D
:1003D0004288C38842EA0343304A4032847A42F872
:1003E00034300288838842EA03432C4A4032847ABC
:1003F00002EBC4025360027B012A19D1274A0C3256
:1004000012680A43254B0C331A604288038842EA7B
:100410000343224A4032847A42F83430C2888388C7
:1004200042EA03431D4A4032847A02EBC40253601D
:10043000C27A3AB9194A121D12688A43174B1B1D1A
:100440001A6006E0154A121D12680A43134B1B1D61
:100450001A60028932B9114A143212688A430F4B6A
:1004600014331A600289012A06D10C4A1432126828
:100470000A430A4B14331A60427B012A06D1074A09
:100480001C3212680A43054B1C331A60034A126877
:1004900022F00102014B1A6010BD0000006600400E
:1004A0001AB143690B43436102E043698B434361E3
:1004B000704730B5024600200023146824F002047F
:1004C0001460146844F00104146000E05B1C54687C
:1004D00004F001041CB94FF6FF74A342F6D154682E
:1004E00004F001040CB900206CE08C79012C04D1DB
:1004F000146844F08004146003E0146824F080045D
:100500001460CC79012C04D1146844F040041460C8
:1005100003E0146824F0400414600C7A012C04D128
:10052000146844F02004146003E0146824F02004EC
:1005300014604C7A012C04D1146844F01004146047
:1005400003E0146824F0100414608C7A012C04D1A8
:10055000146844F00804146003E0146824F00804EC
:100560001460CC7A012C04D1146844F004041460A3
:1005700003E0146824F0040414608C78A407CD7898
:1005800044EA05640D7944EA05444D7944EA05548A
:100590000D886D1E2C43D461146824F0010414608E
:1005A000002300E05B1C546804F001041CB14FF60A
:1005B000FF74A342F6D1546804F001040CB100208A
:1005C00000E0012030BD10B500F5D87303EB011336
:1005D0001B6803F004031372137A53B900F5D87340
:1005E00003EB01131B6840F2FF7404EA53531360DA
:1005F00009E000F5D87303EB01131B686FF060444A
:1006000004EAD303536000F5D87303EB01131B68AE
:1006100003F00203537200F5D87303EB01135B6818
:1006200003F00F03937200F5D87303EB01135B68BB
:100630001B0AD37400F5D87303EB01139B68D372C4
:1006400000F5D87303EB01139B681C0A147300F5C3
:10065000D87303EB01139B681C0C547300F5D8731B
:1006600003EB01139B681B0E937300F5D87303EB28
:100670000113DB68D37300F5D87303EB0113DB6858
:100680001C0A147400F5D87303EB0113DB681C0C0F
:10069000547400F5D87303EB0113DB681B0E9374DD
:1006A00011B92023C36001E02023036110BD10B500
:1006B00002460020936803F08063B3F1806F00D19D
:1006C00010E0936803F00063B3F1006F01D10120E3
:1006D00008E0936803F08053B3F1805F01D10220FA
:1006E00000E00420042874D002F5C07303EB00136B
:1006F0001B6803F0010402F5C07303EB00131C60D8
:100700000B7A7BB94B7A0C8843EA445302F5C074E8
:1007100004EB00142468234302F5C07404EB0014B6
:10072000236010E00B7A4C6843EAC4034C7A2343FD
:1007300002F5C07404EB00142468234302F5C0746E
:1007400004EB001423608B7A03F00F038B7202F525
:10075000C07303EB00135B6823F00F0402F5C07352
:1007600003EB00135C6002F5C07303EB00135B68DE
:100770008C7A234302F5C07404EB001463608B7B16
:100780001C064B7B44EA03440B7B44EA0323CC7AEC
:10079000234302F5C07404EB0014A3608B7C1C0699
:1007A0004B7C44EA03440B7C44EA0323CC7B234385
:1007B00002F5C07404EB0014E36002F5C07303EBB0
:1007C00000131B6843F0010402F5C07303EB001330
:1007D0001C6010BD10B50246002321B1012907D0CD
:1007E00002290FD109E090681D4C00EA04030BE0D8
:1007F00090681C4C00EA040306E090681A4C00EA7A
:10080000040301E0002300BF00BF184C181BA342E3
:1008100016D007DC83B16FF08060184470B10228F5
:1008200018D111E0B0F5007F10D0114C204448B130
:10083000B0F5003F0ED10BE002230DE000230BE0EA
:10084000002309E0002307E0012305E0012303E082
:10085000012301E0002300BF00BFD8B210BD00009B
:10086000030000040003000800000310000100085A
:100870000001FFF770470000014948617047000020
:100880000090024001460868C0F30D40704700B573
:1008900002460023106800F0004058B9106800F4C8
:1008A000004038B9106800F4807018B11046FFF7A6
:1008B000E9FF0346184600BD10B501E001F014F948
:1008C00006480068FFF7E3FF0028F7D14020FFF754
:1008D000D3FF4FF48030FFF7CFFF10BDC4010020DD
:1008E000F0B50A4600210023002400BF3DE00125A9
:1008F00005FA01F3156805EA03049C4234D1056842
:100900004F000326BE40B543056015794E00B54043
:100910000668354305601579012D02D01579022D41
:1009200016D185684F000326BE40B54385605579D2
:100930004E00B540866835438560456801268E4087
:10094000B5434560456896798E40B6B235434560FB
:10095000C5684F000326BE40B543C560D5794E003B
:10096000B540C6683543C560491C1029BFD3F0BDEA
:10097000F0B5002300244D07ED0E02FA05F3CE106A
:1009800000F1200555F826504E07F70E0F26BE4001
:10099000B543CF1000F1200646F82750CE1000F1E5
:1009A000200555F8265045EA0304CE1000F1200535
:1009B00045F82640F0BD8161704742694A40426176
:1009C000704700BFFEE700BFFEE7704770B500212B
:1009D00000230F22C4781CB3174C246804F4E0648D
:1009E000C4F5E064C4F30721C1F10404E3B20A4191
:1009F00044789C40E1B28478144021430C07210ED6
:100A00000E4C05786155047804F01F050124AC40B4
:100A100005786D11AD0005F1E025C5F8004109E04C
:100A2000047804F01F050124AC40054D06787611CA
:100A300045F8264070BD00000CED00E000E400E049
:100A400080E100E002490143024A11607047000062
:100A50000000FA050CED00E029B1064A12680243D5
:100A6000044B1A6004E0034A12688243014B1A6087
:100A7000704700003038024029B1064A126802432C
:100A8000044B1A6004E0034A12688243014B1A6067
:100A90007047000040380240F0B5002100220024D9
:100AA000022500260223324F3F6807F00C0121B1D6
:100AB000042905D0082937D105E02E4F076036E01C
:100AC0002D4F076033E02A4F3F1F3F68C7F3805622
:100AD000274F3F1F3F6807F03F036EB1264FB7FB1C
:100AE000F3F7DFF88CC0ACF1040CDCF800C0CCF3F9
:100AF000881C07FB0CF40CE01E4FB7FBF3F7DFF884
:100B000070C0ACF1040CDCF800C0CCF3881C07FB0F
:100B10000CF4174F3F1F3F68C7F301477F1C7D0050
:100B2000B4FBF5F7076002E0124F076000BF00BF9B
:100B30000F4F3F6807F0F0010909104F7A5C076812
:100B4000D74047600A4F3F6807F4E051890A0B4FCE
:100B50007A5C4768D7408760054F3F6807F460417B
:100B6000490B064F7A5C4768D740C760F0BD00006C
:100B7000083802400024F40040787D01B0010020D4
:100B80000CB50020019000903448006840F480309B
:100B90003249086000BF3148006800F4003000901E
:100BA0000198401C0190009818B90198B0F5A04F29
:100BB000F1D12A48006800F4003010B10120009003
:100BC00001E0002000900098012846D123484030E1
:100BD000006840F08050214940310860204800689A
:100BE00040F440401E4908601C48083000681B491A
:100BF000083108600846006840F400400860084674
:100C0000006840F4A05008601648091F0860081FDB
:100C1000006840F08070091F086000BF0F4800683E
:100C200000F000700028F9D040F205700E4908600D
:100C30000A480830006820F00300084908310860BD
:100C40000846006840F00200086000BF0348083012
:100C5000006800F00C000828F8D10CBD00380240F4
:100C60000070004019544007003C0240042808D19D
:100C70004FF0E021096941F004014FF0E0221161D9
:100C800007E04FF0E021096921F004014FF0E02274
:100C90001161704710B502F08FFC012801D002F0FD
:100CA00015FB10BD10B51548006840F470001349DD
:100CB00008601348006840F00100114908600020F6
:100CC0000F49083108600E4800680E4908400C4979
:100CD00008600D48091D0860081F006820F4802086
:100CE000091F0860002006490C310860FFF748FF23
:100CF0004FF0006001498039086010BD88ED00E0C8
:100D000000380240FFFFF6FE1030002410B501212C
:100D1000074800F022F8012808D106480068401C66
:100D2000044908600121024800F014F810BD0000D9
:100D3000000001400C01002010B50121880700F0DF
:100D40000CF8012805D101F0CFFE0121880700F041
:100D500001F810BDCA430282704730B50246002038
:100D600000230024158A05EA0103958905EA010498
:100D700013B10CB1012000E0002030BD10B540F2ED
:100D80002551134800F041F830B101F09DFE40F2CA
:100D900025510F4800F01EF84FF458710C4800F030
:100DA00034F830B101F090FE4FF45871084800F06B
:100DB00011F840F22661064800F027F830B101F042
:100DC0008BFE40F22661024800F004F810BD0000DE
:100DD0000044004010B50022002340F66A14A142EE
:100DE00000D100BF0A1201249440A3B2DC43048066
:100DF00010BD21B1828942F40052828104E08289CF
:100E00004DF6FF731A408281704770B50246002488
:100E100000230025002040F66A16B14200D100BF31
:100E2000C1F3421501F01F03012606FA03F3012D59
:100E300002D19689334006E0022D02D1168A334052
:100E400001E0968A33400C12012606FA04F4168853
:100E5000344013B10CB1012000E0002070BD00004F
:100E60002DE9FF4705460E460024A14600BFA046D7
:100E7000B08900B100BF2C8A24F44054F0880443A8
:100E80002C82AC8941F20C608443B08831890843DC
:100E9000718908430443AC81AC8A24F44074B0895E
:100EA0000443AC826846FFF7F7FD2048854202D034
:100EB0001F48854202D1DDF80C9001E0DDF8089072
:100EC000A88900F4004040B109EBC90000EB09100B
:100ED00031684900B0FBF1F707E009EBC90000EB0E
:100EE000091031688900B0FBF1F76420B7FBF0F01E
:100EF00004012009642101FB1078A88900F4004056
:100F000040B1322000EBC800B0FBF1F000F0070068
:100F1000044308E0322000EB08106421B0FBF1F03C
:100F200000F00F0004432C81BDE8FF870010014052
:100F30000014014000BFFEE702E008C8121F08C10C
:100F4000002AFAD170477047002001E001C1121F4A
:100F5000002AFBD170470000F0B58BB007460C4665
:100F600015461E4601210820FFF776FD02208DF868
:100F7000280000208DF82A0003208DF82900012088
:100F80008DF82B00092200213148FFF7F1FC0120E8
:100F9000099009A92E48FFF7A3FC092201212C483A
:100FA000FFF7E6FC0220099009A92948FFF798FC01
:100FB00001214806FFF760FD00208DF81E008DF826
:100FC0001F008DF8200001208DF8210000208DF8F1
:100FD00022008DF823008DF81A00ADF818708DF8F6
:100FE0001B408DF81C508DF81D6006A91948FFF7AD
:100FF00060FA00208DF812008DF8130001208DF8A2
:1010000014000020ADF80800ADF80A00ADF80C009F
:10101000ADF80E00ADF8100001208DF8150002A803
:10102000FFF7BAF9012202210A48FFF739FA142022
:101030008DF8040001208DF8050000208DF80600D1
:1010400001208DF8070001A8FFF7C0FC0BB0F0BD30
:10105000000C024000640040F0B585B007460D4624
:10106000002412200090019000208DF808008DF8D7
:1010700009008DF80A5000BF05E0395D0DF10B0045
:101080000155601C84B2AC42F7DB69460B48FFF7A0
:101090000EFB0646002408E0601C84B240F6FF7098
:1010A000844202DB012005B0F0BD31460348FFF762
:1010B00091FB0028F0D00020F5E70000006400401C
:1010C000F0B58BB007460C4615461E46012102209E
:1010D000FFF7C2FC02208DF8280000208DF82A00BE
:1010E00003208DF8290001208DF82B00092205210D
:1010F0003148FFF73DFC2020099009A92E48FFF751
:10110000EFFB092206212C48FFF732FC4020099012
:1011100009A92948FFF7E4FB01218806FFF7ACFC89
:1011200000208DF81E008DF81F008DF82000012092
:101130008DF8210000208DF822008DF823008DF815
:101140001A00ADF818708DF81B408DF81C508DF802
:101150001D6006A91948FFF7ACF900208DF81200B0
:101160008DF8130001208DF814000020ADF8080060
:10117000ADF80A00ADF80C00ADF80E00ADF81000A7
:1011800001208DF8150002A8FFF706F901220221BF
:101190000A48FFF785F940208DF8040001208DF8FA
:1011A000050000208DF8060001208DF8070001A839
:1011B000FFF70CFC0BB0F0BD0004024000680040DB
:1011C000F0B585B007460D4600242220009001901E
:1011D00000208DF808008DF809008DF80A5000BF36
:1011E00005E0395D0DF10B000155601C84B2AC4285
:1011F000F7DB69460B48FFF75AFA0646002408E079
:10120000601C84B240F6FF70844202DB012005B00E
:10121000F0BD31460348FFF7DDFA0028F0D000208A
:10122000F5E700000068004070B504460420FFF7B1
:101230001DFD0C48047025464FF47A70454301208B
:10124000094908804FF0E020006940F002004FF0AB
:10125000E021086108464561006940F0010008612D
:1012600070BD0000180000201A00002010B50A46CA
:1012700000BF00BF114643681B895B1E4468238181
:1012800003691B680B600369196010BD014608699A
:101290000268AAB110680B69186000BF00BF4868F7
:1012A0000089401C4B681881486800894B685B893D
:1012B000984203DD486800894B68588110467047A2
:1012C00048688088401C4B6898800020F7E72DE92B
:1012D000F05F06460D464FF0000B2888052848D1E0
:1012E00070784FEA0029B07840EA090909F1010055
:1012F0001FFA80F9F078040230790443012C35DBC1
:10130000B4F5FA6F32DA374600202880012007F85A
:10131000010B2888401C288004F0070040B12046BB
:10132000E11704EB5171C910491C01F0FF0805E0F9
:101330002046E11704EB5171C1F3C70807F8018B90
:101340002888401C2880002322464946384600F061
:101350004DFA8246BAF1000F04D0504601F0A2FBCC
:10136000834608E028884044288004E04FF0030BBF
:1013700001E04FF0030B5846BDE8F09F2DE9F05F08
:1013800006460D464FF0000B2888052847D1707897
:101390004FEA0029B07840EA090909F101001FFA73
:1013A00080F9F078040230790443012C34DBB4F581
:1013B000FA6F31DA374600202880022007F8010B47
:1013C0002888401C288004F0070040B12046E1171F
:1013D00004EB5171C910491C01F0FF0805E02046DB
:1013E000E11704EB5171C1F3C70807F8018B288896
:1013F000401C288022464946384600F043FA82467F
:10140000BAF1000F04D0504601F04CFB834608E0CF
:1014100028884044288004E04FF0030B01E04FF09F
:10142000030B5846BDE8F09F2DE9F04705460C46F2
:101430004FF0000A2088052837D168784FEA002845
:10144000A87840EA080808F101001FFA80F8E87857
:1014500006022E79012E25DB7D2E23DC2F4600206F
:101460002080032007F8010B2088401C2080700694
:10147000000E07F8010B2088401C20800023324614
:101480004146384600F02EFA8146B9F1000F04D0EB
:10149000484601F007FB824609E0208800EB460041
:1014A000208004E04FF0030A01E04FF0030A5046A9
:1014B000BDE8F0872DE9F04705460C464FF0000ADD
:1014C0002088052837D168784FEA0028A87840EAB4
:1014D000080808F101001FFA80F8E8780602287968
:1014E0000643012E24DB7D2E22DA2F4600202080A9
:1014F000042007F8010B2088401C20807006000E95
:1015000007F8010B2088401C2080324641463846AF
:1015100000F028FA8146B9F1000F04D0484601F0E6
:10152000C1FA824609E0208800EB4600208004E0F2
:101530004FF0030A01E04FF0030A5046BDE8F08780
:101540002DE9FC5F04460D460020009028880A28FB
:101550005DDB60784FEA002AA07840EA0A0A0AF1C7
:1015600001001FFA80FAE0780602207906436079CC
:101570004FEA002BA07940EA0B0B0BF101001FFA98
:1015800080FBE0790702207A0743607A0190012E00
:101590003BDB7D2E39DC012F37DB792F35DC790001
:1015A0000198814231D101233A46594604F10A009B
:1015B00000F098F98146B9F1000F1ED1A046002035
:1015C0002880172008F8010B2888401C2880700606
:1015D000000E08F8010B2888401C288000233246A2
:1015E0005146404600F07EF98146B9F1000F04D122
:1015F0002888022101FB06002880B9F1000F06D0DF
:10160000484601F04FFA009001E003200090009856
:10161000BDE8FC9F70B505460C46064802880649A1
:10162000681CFEF72FFE03480088401C2080002025
:1016300070BD0000FA000020F80100202DE9F843F9
:1016400004460F464FF000083888052829D16078F5
:101650000502A0780543681C85B22079F0B9E078CE
:10166000FF2801D0E078C8B900208DF80100E078AB
:10167000FF2803D101208DF8000002E000208DF842
:10168000000001231A462946684600F0AFF80646D6
:101690004EB1304601F006FA804604E04FF00308F0
:1016A00001E04FF003084046BDE8F8832DE9F04122
:1016B00004460F464FF000083888052812D160789C
:1016C0000502A0780543681C85B201231A46294605
:1016D000E01C00F007F9064636B1304601F0E2F9A9
:1016E000804601E04FF003084046BDE8F0812DE957
:1016F000F05F05460E464FF0000B3088052839DDB7
:1017000068780702A8780743781C87B2E878040253
:101710002879044395F805A004F0070040B120465D
:10172000E11704EB5171C910491C01F0FF0805E0F5
:101730002046E11704EB5171C1F3C708012C16DBF9
:10174000B4F5F66F13DCD04511D10123224639469A
:10175000A81D00F04BF88146B9F1000F04D04846AF
:1017600001F0A0F9834607E00520308004E04FF047
:10177000030B01E04FF0030B5846BDE8F09F2DE945
:10178000F04704460E464FF0000A3088062828DB52
:1017900060780702A0780743781C87B2E0780502DA
:1017A0002079054394F80590012D17DB782D15DC81
:1017B0006806000E484511D101232A463946A01D6E
:1017C00000F090F88046B8F1000F04D0404601F0D8
:1017D00069F9824607E00520308004E04FF0030AF3
:1017E00001E04FF0030A5046BDE8F0872DE9F047CD
:1017F00005460E46904699464FF0000A0FFA88F4C7
:1018000030B2002836DB06EB0800102832DC304608
:1018100007B2B9F1000F03D0B9F1010F29D115E0DA
:1018200011E0082C01DD082000E02046C2B2B9B268
:10183000134801F0E1FC05F8010BA4F1080004B223
:1018400007F1080007B2002CEBDC12E00EE015F8FF
:10185000013B082C01DD082000E02046C2B2B9B2ED
:10186000074801F0DEFCA4F1080004B2002CEEDC15
:1018700000BF01E04FF0010A5046BDE8F0870000CC
:10188000F60000202DE9F04705460C4616464FF0BD
:10189000000937B220B200281CDBA019102819DC7F
:1018A00020461FFA80F812E0082F01DD082000E032
:1018B0003846C2B241460A4801F09EFC05F8010BC9
:1018C000A7F1080007B208F108001FFA80F8002FFE
:1018D000EADC01E04FF001094846BDE8F08700006E
:1018E000F8000020F0B504460D4600206E1EB5B28B
:1018F000002D30DBAE18082E2DDC184E3688A91BC3
:1019000013B1012B26D111E00DE0154E36F8116010
:10191000361204F8016B124E16F8116004F8016BD0
:10192000491C561EB2B2002AEFDC13E010E014F896
:10193000017B3E020A4F27F8116014F8016B37F85B
:1019400011703E43064F27F81160491C561EB2B273
:10195000002AECDC00E00120F0BD0000F4000020D3
:10196000E400002030B503460020002917DB8D1865
:10197000082D14DC0B4D2D884C1B0DE00A4D35F85D
:1019800014502D1203F8015B074D15F8145003F89D
:10199000015B641C551EAAB2002AEFDC00E00120A6
:1019A00030BD0000E2000020D20000201EB5002162
:1019B0000022009201920292214A1268126802F0FB
:1019C000004282B1002200921E4A526902F0800257
:1019D00022B180221B4B5A6100229A609DE81C00B4
:1019E00080E81C001EBD164A1268126802F400420C
:1019F000B2B9134A1268126802F4807282B1104AB6
:101A00001268126802F4007252B10D4A126812682C
:101A1000C2F30D42111F0A4A12689268019200E057
:101A200000210091064A12680292054A1268D268A3
:101A3000034B1A609DE81C0080E81C0000BFD1E742
:101A4000C40100200090024070B50446204600F01A
:101A500011F8064616B94FF0FF3070BD21463046EA
:101A60002269904705461DB1304600F0D5FA0026A0
:101A70002846F2E72DE9F04387B08146002600258D
:101A800001A8FFF793FF01A807C804AB07C3049898
:101A900087B2DDF814804FF4C1723946002000F09F
:101AA0000BFA054665B12C4608E0628908EB060191
:101AB0006068FEF7E7FB608906442468002CF4D1D7
:101AC0004FF00040069908600648406900F0800029
:101AD00020B180200349486100208860284607B073
:101AE000BDE8F0830090024010B50248FFF7ACFF5C
:101AF00010BD0000300200201CB54FF44070FEF70E
:101B0000A1FFA820FFF790FB00F0B4F94FF4E130FB
:101B100001F082F80523062200211046FFF71CFA87
:101B20000523062200211046FFF7CAFA06480121C4
:101B300000238022CDE9001004A1074801F008FD30
:101B400001F0E6FA00BFFEE7000000207374617246
:101B5000745F7461736B0000F12C000870B505466A
:101B600005B970BD05F0030060B100BF00BF00BF44
:101B70002E48B0F8D000401C81B22C48A0F8D010FC
:101B800000BFEEE7A5F1080429480068844205D3A8
:101B900005F10C002749096888420CD900BF00BF35
:101BA00000BF2248B0F8D000401C81B21F48A0F806
:101BB000D01000BFD5E7207960B900BF00BF00BFDB
:101BC0001A48B0F8D000401C81B21848A0F8D010D4
:101BD00000BFC6E7204600F031F860B900BF00BF83
:101BE00000BF1248B0F8D000401C81B20F48A0F8E6
:101BF000D01000BFB5E7002020710F480068844274
:101C000001D20D480460208809490988611A411AE7
:101C10000648B0F8CC00401A81B20448A0F8CC10B5
:101C2000204600F04DFA00BF9BE70000588F0020CF
:101C30001001002014010020180100202DE9F041BE
:101C40000446204600F0E8F80546208800F054FFDE
:101C50000646608800F050FF07462088B0F5205FF8
:101C600010D86088B0F5205F0CD86088A84202D0F8
:101C70003888A84206D106480068864205D0708898
:101C8000A84202D00020BDE8F0810120FBE700005F
:101C9000140100202DE9F0478046B8F1000F02D171
:101CA0000020BDE8F08708F1030020F0030085B2B2
:101CB0000C2D00D20C25B5F5205F01D8454501DA81
:101CC0000020EEE75148006800F0A6F806468DE0D7
:101CD000304600F011FF0446207900287ED121888B
:101CE00006F10800081AA8427CD3218806F10800F2
:101CF000091A05F11400814233D306F10800284483
:101D00001FFA80F900BF00BF484600F0F5FE074605
:101D100000213971218839807E80A4F8009001204B
:101D200020713888B0F5205F04D0388800F0E4FED8
:101D3000A0F8029000BF3648B0F8CC1005F10800BA
:101D4000084481B23248A0F8CC10B0F8CE10B0F8F8
:101D5000CC00814204DA2E48B0F8CC10A0F8CE10A6
:101D60001BE00120207100BF204600F055F82849F3
:101D7000B1F8CC1022881144081A81B22448A0F886
:101D8000CC10B0F8CE10B0F8CC00814204DA204874
:101D9000B0F8CC10A0F8CE1000BF1C4800688442F8
:101DA00015D11A48D0F800A004E0BAF8000000F0FD
:101DB000A3FE82469AF8040018B1164800688245CE
:101DC000F3D11248C0F800A000BF00BF00BF00BFA1
:101DD00000BF00BF00BF00BF00BF00E002E004F191
:101DE00008005EE7304600F087FE0688C5F5205003
:101DF000B0423FF66DAF0648B0F8C800401C81B253
:101E00000348A0F8C81000204BE70000180100208C
:101E1000588F002014010020014602480088081A4B
:101E200080B270471001002070B504460D4600BF17
:101E3000082C00DB70BD00BF05B9FBE7034951F872
:101E400024002946FFF712FA00BFF3E7603B0008C1
:101E500070B5044600BF082C01DB002070BD00BF38
:101E6000034951F82400FFF711FA05462846F5E723
:101E7000603B00081CB501211020FEF7EDFD01209C
:101E80008DF8040000208DF806004FF400500090FB
:101E900001208DF8070003208DF8050069460548EC
:101EA000FEF71EFD00BF4FF400510248FEF783FD10
:101EB00000BF1CBD001002402DE9FE4F82460D46BA
:101EC00090465746B8F1010F0AD0B8F1410F06D03D
:101ED000B8F5C17F0BD0B8F5207F7CD14AE000BFB8
:101EE00042462946002000F07DF8044677E00024B1
:101EF00000200290A94600BF0720FFF7A9FF064671
:101F000036B914B1204600F087F80020BDE8FE8FF6
:101F1000F81C20F00300C0F5807080B2484501DD58
:101F2000484605E0F81C20F00300C0F5807080B240
:101F300083460020CDE9008006F110003844C01C23
:101F400020F003015B464A46304600F0AAF800BF85
:101F500000BF00BF00BF0CB9344601E00298066024
:101F60000296A9EB0B001FFA80F90027B9F1000FC8
:101F7000C2DC34E0F81C20F00301E81C20F0030070
:101F8000084486B206F110001FFA80F9E81C20F020
:101F90000300B04204D8E81C20F00300484501D9F2
:101FA0000020B3E74846FFF775FE04460CB9002051
:101FB000ACE70020CDE9008004F110003844C01CDB
:101FC00020F003012B462A46204600F06AF800BFA5
:101FD00000BF04E0FFE700BF00BF002096E700BF9E
:101FE000204693E72DE9FC4106460C46174600BF04
:101FF00000BF0620FFF72CFF054615B90020BDE8FD
:10200000FC810020234622463146CDE90070284657
:1020100000F047F82846F2E72DE9F047044624B9D6
:1020200000BF00BF0020BDE8F087002635E000BFFC
:1020300000BFA07B401E00F0FF0884F80E80B8F1BE
:10204000000F28D12768207B00F00F05607B00F08F
:10205000020038B1A14600BF00BF2046D9F81010D9
:10206000884714E0022D04D121460720FFF7DCFE4B
:102070000DE0012D04D121460620FFF7D5FE06E034
:102080001DB92046FFF76AFD01E000BF00BF701CCC
:10209000C6B23C4600E0002400BF002CC7D1304649
:1020A000C1E770B5DDE904450026066041600281A4
:1020B000438104734573012686730026C67370BD81
:1020C0002DE9F041044600BF00BF00BF00BF00BFC4
:1020D00000BF00BF00BF208800F00EFD0546AC42E7
:1020E00019D02879B8B91B480068854213D01A481E
:1020F0000068A84201D118480460288820802888F8
:10210000B0F5205F07D02046FFF786FE07462888F7
:1021100000F0F2FC4780608800F0EEFC0646A64224
:1021200015D0307998B90C480068A04201D10A480E
:102130000660208830802088B0F5205F07D03046C8
:10214000FFF76AFE0746208800F0D6FC4780BDE80E
:10215000F081000014010020180100202DE9F04159
:1021600005460E462648076826480068001D00F010
:1021700031FE50B92348006890F82C1001208840A7
:1021800021490968814320480160681CD8B9D6B14B
:102190001E4948681B49096888601A4982680968AD
:1021A000CA6018490968091D8268516015490968A3
:1021B000091D8160154A134909684A611146096879
:1021C000491C11601AE07C190E4800684460BC424A
:1021D00007D20C480168091D0D48006800F024FE74
:1021E0000CE008480168091D0A48006800F01CFE60
:1021F00009480068844201D207480460BDE8F081C4
:10220000700100205C0100207401002014F90020FE
:1022100064010020600100208C01002010B50446FC
:1022200000F028FE2F480068401C2E4908602E4808
:10223000006840B92C4804600846006801280DD1A8
:1022400000F0BAF90AE02948006838B92648006861
:10225000C06AE16A884201D82348046024480068C3
:10226000401C2349086094F82C1001208840214923
:10227000096808431F490860E16A01EB81011E4AB1
:1022800002EB81014868A0608268E260211D8268DB
:1022900051608160E16A01EB8101174A02EB810222
:1022A0006261E16A01EB8101134A52F82110491C75
:1022B000E26A02EB8202104B43F8221000F0ECFDC0
:1022C0000A48006868B108480068C06AE16A884244
:1022D00007D24FF0805009490860BFF34F8FBFF31A
:1022E0006F8F10BD6C0100205C0100207801002080
:1022F000880100207401002060F8002004ED00E057
:1023000010B500F0B7FD0C48006890B90B4800F01C
:102310007BFD0B4800F078FD08480A490860084832
:102320000949086000221021052000F0E9FF024958
:10233000086000F0B1FD10BDA401002028F90020C4
:102340003CF900209C010020A001002010B516E0FF
:1023500000F090FD0C48C068C468201D00F03AFDF4
:102360000A480068401E0949086009480068401E84
:102370000749086000F090FD204600F05FF804482F
:1023800000680028E4D110BD00F900206C01002095
:102390006801002070B504460D46206C70B1216CB8
:1023A000E0680144E160D4E90210884201D3216869
:1023B000E1602846226CE168FDF764FF70BD2DE9FD
:1023C000F04104460F4615464FF00008A66B206CFE
:1023D00048B9206800282CD1A06801F0CBF98046CC
:1023E0000020A06025E07DB93946226C6068FDF7C9
:1023F00049FF216C606808446060D4E901018842AB
:1024000017D32068606014E03946226CE068FDF75D
:1024100039FF216CE068411AE1602168E068884278
:1024200003D2216CA068411AE160022D01D106B1EE
:10243000761E701CA0634046BDE8F08110B50446CE
:10244000206B00F039FD204600F036FD10BD000085
:102450000146084A126812680AB9012200E0002207
:102460000A600A6822B9034A1268D268106800E05C
:10247000002070479C01002030B54FF4D043154830
:1024800000F007042CB1C01D20F00700114C041B04
:102490001B1B0246104C226000240F4D6C60D018AC
:1024A000083820F007000D4C206000240B4D2D68EB
:1024B0006C600A4D2D682C601146441A4C60074C24
:1024C00024680C60064D4C682C60064D4C682C60EE
:1024D00030BD0000609000203C010020440100203D
:1024E0004C0100204801002000BFFFF72FFF0648E5
:1024F00000680128F9D94FF0805004490860BFF303
:102500004F8FBFF36F8FF0E760F8002004ED00E01D
:102510002DE9F04106460D4617469846069C0DB932
:10252000246000E02760E66325640121204600F076
:102530000DFF0020A064BDE8F0812DE9FF5F80461B
:102540000E469146DDE90E7A109CA9F10100216B3F
:1025500001EB800B2BF0070B7EB1002507E0715DCE
:1025600004F134004155705D00B902E06D1C0A2D84
:10257000F5D300BF00213D200155052F00D30427CE
:10258000E7622764201D00F04CFC04F1180000F005
:1025900048FC2461C7F10500A061646241465846C9
:1025A000039A00F023FB2060BAF1000F01D0CAF8B3
:1025B0000040BDE8FF9F000010B5002407E004EBD9
:1025C00084010F4A02EB810000F01EFC641C052C04
:1025D000F5D30C4800F018FC0B4800F015FC0B4834
:1025E00000F012FC0A4800F00FFC0A4800F00CFC56
:1025F00004480949086004480849086010BD000003
:1026000060F80020C4F80020D8F80020ECF8002082
:1026100000F9002014F9002060010020640100206E
:1026200010B50146164800E0006803688B42FBD3F2
:102630000246436813448B4204D143684C682344E8
:10264000436001460A464B6813440468A34211D113
:102650000C4C03682468A34208D04B680468646883
:1026600023444B6003681B680B6005E0054B1B6847
:102670000B6001E003680B60884200D0016010BD70
:102680003C010020440100202DE9F04104460D46A4
:1026900016461F464FF0000865602461B5420CD80D
:1026A000F01BA169884202D34FF0010811E0211DFF
:1026B0000948006800F0B8FB0BE0BE4204D2BD42FE
:1026C00002D34FF0010804E0211D0448006800F027
:1026D000ABFB4046BDE8F081A00100209C0100203A
:1026E00070B5054600F0C6FBA86B08B9012400E0F0
:1026F000002400F0D1FB204670BDF1B50098846C39
:102700000026A06BE16B884221D294F9455000224B
:1027100069462046FFF753FE0646681C60B9606AAA
:1027200008B9012000E0002080B904F1240001F084
:1027300077F858B1012609E000F060FB0746BD427A
:1027400003D2681C40B284F8450000BF00BF304689
:10275000F8BD000070B505460E460E480068C0681A
:10276000C468201D00F036FB94F8240000F004003B
:1027700028B132462946204600F0D0F805E094F80A
:10278000240000F0FE0084F824002046216A8847D7
:1027900070BD00009C01002070B586B077E0029803
:1027A000002805DA03AED6E90020B168904700BFE3
:1027B000029800286BDB049C606908B9012000E0E6
:1027C000002010B9201D00F005FB01A800F0D2F890
:1027D000054602980A2858D2DFE800F05705072E70
:1027E000364706082F3700BF00BF00BF94F824000B
:1027F00040F0010084F824000398A2698118034680
:102800002A462046FFF740FFA8B194F8240000F0C4
:10281000040038B10398A26981182A46204600F0C6
:102820007DF805E094F8240000F0FE0084F8240010
:102830002046216A884729E000BF94F8240000F070
:10284000FE0084F8240021E000BF94F8240040F04A
:10285000010084F824000398A061A06941192B4667
:102860002A462046FFF710FF10E094F8240000F0FD
:10287000020018B9204600F01FFB05E094F8240080
:1028800000F0FE0084F8240000E000BF00BF00223A
:1028900002A90448006800F0A9FD00287FF47FAF7A
:1028A00006B070BDA4010020F8B505460C4600F046
:1028B0006BFC684600F05EF80646009820BB44B901
:1028C000B54206D801F030F831462846FFF742FFFE
:1028D0001CE03CB10E480068006808B9012000E027
:1028E00000200446A91B22460A48006800F01EFB8F
:1028F00001F01AF850B94FF0805007490860BFF353
:102900004F8FBFF36F8F01E001F00EF8F8BD0000AC
:10291000A0010020A401002004ED00E070B50446F1
:102920000D46164604E0A06905442046216A884702
:10293000A06941192B4632462046FFF7A5FE002824
:10294000F1D170BD09480068006808B9012000E0B5
:10295000002020B14FF0FF300549086005E0034832
:102960000068C06800680249086070476001002084
:102970008C01002070B5044600F02EFE0546074885
:102980000068854204D200F00BF80120206001E0CD
:102990000020206001480560284670BDAC01002081
:1029A00070B508E00D480068C06804684FF0FF315A
:1029B0002046FFF7CFFE09480068006808B90120EB
:1029C00000E000200028EDD00448056804480068B5
:1029D000024908600248056070BD00009C010020AB
:1029E000A001002000BFA02080F31188BFF34F8F0B
:1029F000BFF36F8F00BF00BFFEE708B500BF68469A
:102A0000FFF726FD044620460099FFF74DFFFFF72C
:102A1000C3FEF4E770B5044600F02CFA94F9455073
:102A200019E0A06C30B12046FFF767FE88B100F0D6
:102A300033FB0EE0606A08B9012000E0002038B9DD
:102A400004F1240000F0ECFE18B100F025FB00E0DA
:102A500003E0681E45B2002DE3DC00BFFF2084F8D0
:102A6000450000F019FA00F005FA94F9445010E01E
:102A7000206908B9012000E0002048B904F11000E5
:102A800000F0CEFE08B100F007FB681E45B200E082
:102A900001E0002DECDC00BFFF2084F8440000F0D2
:102AA000FBF970BD014621B1012904D0072906D1E7
:102AB00003E0002005E0022003E0062001E00420FE
:102AC00000BF00BF7047000010B502480068804793
:102AD00010BD00003400002010B502480068804797
:102AE00010BD00003800002010B502480068804783
:102AF00010BD00003C000020014602480068084468
:102B000070470000100100202DE9F04705464FF006
:102B1000000900F039FB3048006808B9FFF7ACFC49
:102B200075B105F00700C0F11008C8F1FF30A842E8
:102B300001D2012000E0002008B9454400E0002552
:102B4000012000EBE570002841D0002D3FD0234844
:102B5000006885423BD8224E3046046801E0264694
:102B600024686068A84202D220680028F7D11A4879
:102B7000006884422BD0306800F10809206830607A
:102B80006068401B102807D967196068401B78608F
:102B900065603846FFF744FD104960680968081A07
:102BA0000E490860084600680E490968884203D249
:102BB0000A4800680B490860606840F000406060A7
:102BC0000020206008480068401C0749086000F0A9
:102BD000ABFE4846BDE8F0874401002048010020D4
:102BE0003C0100204C01002050010020001F4FF04C
:102BF00080730360001F21F001030360001F054B79
:102C0000036014380260001F6FF002030360203875
:102C100070470000E529000810B588B0044602207E
:102C20008DF81C008DF81D0000208DF81E0001207D
:102C30008DF81F0001210820FDF70EFF0722052156
:102C40002248FDF795FE2020069006A91F48FDF7B3
:102C500047FE01210820FDF7FFFE072206211B4841
:102C6000FDF786FE4020069006A91848FDF738FEBD
:102C700001214804FDF700FF02940020ADF80C008C
:102C8000ADF80E00ADF81000ADF814000C20ADF852
:102C9000120002A90E48FEF7E3F826208DF8040082
:102CA00001208DF8050000208DF8060001208DF828
:102CB000070001A8FDF78AFE01210548FEF799F8F3
:102CC000FF2000F007F808B010BD0000000C024023
:102CD000004400400549088000BF0449091F0988D5
:102CE00001F040010029F8D0704700000444004082
:102CF0001CB5044600F0BEF81248022100238022D1
:102D0000CDE9001010A1124800F022FC1148032167
:102D100000238022CDE900100FA1114800F018FC1B
:102D20001048042100238022CDE900100EA1104894
:102D300000F00EFC0F48006800F038F900F0ACF825
:102D40001CBD0000040000207461736B31000000A2
:102D5000792D0008080000207461736B32000000B8
:102D6000992D00080C0000207461736B3300000083
:102D7000AD2D0008000000200AE000BF4FF4005114
:102D80000448FDF71AFE00BF4FF4FA7000F0F4F8A3
:102D9000F3E700000010024006E0AA20FFF79AFFC8
:102DA0004FF4FA7000F0E8F8F7E700000FE00821B0
:102DB0000748FEF751F94FF4FA7000F0DDF80821EA
:102DC0000348FEF7FDF94FF4FA7000F0D5F8EEE78E
:102DD0001000002001460A69D1E901309860D1E96C
:102DE000010358605068884201D188685060002013
:102DF00008611068401E1060106870470148006844
:102E0000704700006C01002000F1080141604FF0A4
:102E1000FF31816000F10801C160016100210160A2
:102E2000704700210161704710B502460B685C1CB9
:102E30000CB9106907E002F1080000E0406844683E
:102E400024689C42FAD944684C604C68A160886050
:102E500041600A611468641C146010BD42684A60D5
:102E600093688B60936859609160086103685B1C8C
:102E70000360704700BFA02080F31188BFF34F8F1D
:102E8000BFF36F8F00BF03480068401C0149086012
:102E9000704700005801002006480068401E0549A0
:102EA00008600846006820B9002080F3118800BF40
:102EB00000BF70475801002070B506463546E6B1A0
:102EC000083D2C466068C00FB8B12068A8B960689A
:102ED00020F00040606000F057F908496068096818
:102EE0000844064908602046FFF79AFB044800683A
:102EF000401C0349086000F017FD70BD4801002028
:102F00005401002000204FF0E0210861886106484C
:102F100000684FF47A71B0FBF1F0401E4FF0E021F1
:102F20004861072008617047D00100202DE9F04179
:102F300005460E4617462C46FFF79CFF94F94400C1
:102F4000401C10B9002084F8440094F94500401C4E
:102F500010B9002084F84500FFF79EFFA06B28B948
:102F60003A46314604F1240000F0ACF82046FFF761
:102F700051FDBDE8F081000070B50446002544B164
:102F800000F002F900212046FFF7E8F800F0CCFC41
:102F900005463DB94FF0805003490860BFF34F8F9D
:102FA000BFF36F8F70BD000004ED00E070B5054603
:102FB000FFF760FF15B92948006800E0284604467D
:102FC000201DFFF707FF78B9E06A00EB8000244975
:102FD00051F8200040B994F82C1001208840214974
:102FE000096881431F480160A06A18B104F1180004
:102FF000FFF7F0FE1C480068401C1B49086017489A
:103000000068844209D1211D1848FFF727FF18489E
:103010000068401C1649086006E016480068401E1B
:1030200014490860FFF78EFCFFF736FF0B48006875
:10303000844202D02046FFF701FA0F48006858B1D9
:1030400006480068844207D14FF080500B49086061
:10305000BFF34F8FBFF36F8F70BD00005C01002086
:1030600060F80020740100208801002000F9002091
:10307000680100206C0100207801002004ED00E0D0
:10308000034909680160034909684160704700000D
:103090008401002070010020012001490860704770
:1030A0008001002070B505460C46054801681831BE
:1030B0002846FFF7B9FE01212046FFF74FF870BD03
:1030C0005C01002070B504460E46154660680F4945
:1030D0000968C8610D49826809680A620B49096874
:1030E00018318268516009490968183181600749BF
:1030F00009688C622168491C21600DB14FF0FF36D0
:1031000029463046FFF72AF870BD00005C01002018
:103110001CB5154800210B467822CDE9001013A1FB
:10312000144800F015FA0446012C02D100F0AAFC64
:103130000446012C14D100BFA02080F31188BFF3F6
:103140004F8FBFF36F8F00BF4FF0FF300A49086009
:1031500001200A49086000200949086000F092F83F
:10316000084800681CBD00009001002049444C45FF
:1031700000000000E92400088C01002078010020F4
:10318000700100209401002002480068401C0149A1
:1031900008607047980100201248006818B10120AB
:1031A000114908601DE000200F4908600F480068C1
:1031B000B0FA80F0C0F11F0101EB81020C4B03EB70
:1031C000820042685268426000F1080243689342FC
:1031D00002D14268526842604268D268054B1A6068
:1031E00000BF70479801002080010020740100207A
:1031F00060F800205C010020F0B503460C4615463F
:10320000E208A4EBC20087B20120A840401E86B2AB
:10321000995C501C185C41EA002139413140C8B228
:10322000F0BD2DE9F043044615461F46C808A1EB42
:10323000C0081FFA88FC07FA0CF81FFA88F74FF04D
:10324000010808FA05F8A8F101081FFA88F6A1EBB1
:10325000C00806FA08F81FFA88F6225C00F1010897
:1032600014F8088042EA082222EA060848EA07021F
:1032700022544FEA222900F1010804F80890BDE821
:10328000F083000010B50E48006840F0F0700C4963
:1032900008600846006840F060400860FFF732FEB2
:1032A000002008490860FCF79FFF0748006840F0CD
:1032B000404005490860FCF783FF002010BD000076
:1032C00020ED00E05801002034EF00E010B500BF11
:1032D000A02080F31188BFF34F8FBFF36F8F00BF23
:1032E00000F080F918B14FF080500449086000BF29
:1032F000002080F3118800BF10BD000004ED00E045
:103300002DE9F84304460E4617460025DCB1681E39
:10331000B0FBF4F0B04216D304FB06F010F14D0FF1
:1033200011D804FB06F909F14C00FFF7EDFB054647
:103330004DB1A84608F14C083B464246314620466E
:103340000095FFF7E5F82846BDE8F8832DE9F04140
:1033500005460E4601272C46002C41D0E06B002884
:103360003ED0B91EE06BB1FBF0F0216C884237D340
:10337000FFF780FDD4E90F12206801FB0200A06076
:103380000020A06320686060E06B401E226C216812
:1033900000FB0211E160FF2084F8440084F845003E
:1033A0009EB9206908B9012000E00020A8B904F105
:1033B000100000F035FA80B14FF080500A490860E3
:1033C000BFF34F8FBFF36F8F07E004F11000FFF7DB
:1033D0001BFD04F12400FFF717FDFFF75DFD00E082
:1033E00000273846BDE8F08104ED00E02DE9F74103
:1033F00083B005460F464FF000082C4600BFFFF78C
:1034000039FDA66BF6B139462046FEF7C3FF701EA4
:10341000A063206908B9012000E0002060B904F130
:10342000100000F0FDF938B14FF080502F490860CE
:10343000BFF34F8FBFF36F8FFFF72EFD012006B054
:10344000BDE8F081059818B9FFF726FD0020F6E7E2
:10345000B8F1000F04D101A8FFF712FE4FF00108E8
:10346000FFF71AFDFFF790FEFFF704FD94F9440003
:10347000401C10B9002084F8440094F94500401C19
:1034800010B9002084F84500FFF706FD05A901A842
:1034900000F02EF8F0B92046FFF722F9A0B104F1B0
:1034A00024000599FFF7FEFD2046FFF7B3FA00F070
:1034B0003BFA0028A3D14FF080500C490860BFF3BD
:1034C0004F8FBFF36F8F9AE72046FFF7A3FA00F004
:1034D0002BFA94E72046FFF79DFA00F025FA2046E4
:1034E000FFF7FEF800288AD00020A8E704ED00E0EE
:1034F00070B506460C46FFF7BDFC134802687068BD
:10350000131A2068401C08B9002519E00F493068DB
:103510000968884206D07068904203D801250020CF
:1035200020600DE02068984207D92068C01A20600A
:103530003046FFF7A5FD002502E0002020600125B0
:10354000FFF7AAFC284670BD70010020840100200E
:103550002DE9FF4F85B0804689461746DDE912AB5D
:10356000B800FFF7D1FA064676B15020FFF7CCFA43
:1035700004462CB150212046FCF7ABFE266304E044
:103580003046FFF799FC00E000247CB10020CDE933
:1035900000ABCDE902403A4649464046089BFEF75B
:1035A000CCFF2046FEF73AFE012501E04FF0FF3543
:1035B000284609B0BDE8F08F0549096809B901201E
:1035C00005E00449096809B9022000E000207047BD
:1035D0007801002098010020014908687047000028
:1035E000700100202DE9F0410027574800680028AD
:1035F0007ED156480068451C544805608DB9544832
:10360000D0F8008053480068514908605148C0F81C
:10361000008051480068401C4F490860FFF792F94C
:1036200000BF4E480068854276D300BF4848006816
:10363000006808B9012000E0002020B14FF0FF3001
:103640004649086067E042480068C068C468666828
:10365000B54202D2414806605DE06069D4E90212D9
:103660008A60D4E902214A60211D42688A4201D160
:10367000E1684160002262610168491E0160A06A40
:1036800098B1A06AD4E907128A60D4E907214A6098
:1036900004F1180142688A4201D1216A4160002286
:1036A000A2620168491E016000BF94F82C1001203D
:1036B00088402B490968084329490860E16A01EB01
:1036C0008101284A02EB81014868A0608268E260BB
:1036D000211D826851608160E16A01EB8101214A0C
:1036E00002EB81026261E16A01EB81011D4A00E0A7
:1036F00022E052F82110491CE26A02EB8202194BC7
:1037000043F822101849E06A0968C96A88428DD9CD
:1037100001278BE700E000BF13480068C06A00EB98
:103720008000104951F82000012800D901270F48D6
:10373000006800B1012704E00D480068401C0C49F6
:1037400008603846BDE8F081980100207001002033
:103750006001002064010020840100208C01002011
:103760007401002060F800205C010020800100202E
:103770007C01002070B505462C460026002D48D05F
:10378000606C401E6064216CE06A884241D0606CCD
:1037900000283ED1201DFFF71DFB40B994F82C10E6
:1037A000012088401C49096881431B480160206C46
:1037B000E062E06AC0F10500A06194F82C100120DD
:1037C000884015490968084313490860E16A01EB1C
:1037D0008101124A02EB81014868A0608268E260C0
:1037E000211D826851608160E16A01EB81010B4A11
:1037F00002EB81026261E16A01EB8101074A52F842
:103800002110491CE26A02EB8202044B43F82210A9
:103810000126304670BD00007401002060F80020D1
:1038200070B50346D868C168886AD1E90745A560C4
:10383000D1E90754656001F118044568A54201D13A
:103840000C6A446000258D620468641E0460304880
:10385000006800283DD14869D1E90245A560D1E959
:10386000025465600C1D4568A54201D1CC684460D6
:1038700000254D610468641E046091F82C4001200D
:10388000A040244C24682043224C2060CC6A04EBE6
:103890008404214D05EB8404606888608568CD60F0
:1038A0000C1D85686C608460CC6A04EB84041A4D3E
:1038B00005EB84054D61CC6A04EB8404164D55F884
:1038C0002440641CCD6A05EB8505134E46F825405F
:1038D00010E0124C6068C86185680D6201F118043F
:1038E00085686C6084600D4D8D622C462468641C74
:1038F0002C6000BF0A4CC86A2468E46AA04204D95C
:1039000001220120074C206000E00022104670BD1B
:10391000980100207401002060F80020ECF80020DD
:103920005C0100208001002070B500240026FFF714
:10393000A1FA4B480068401E4949086008460068E3
:1039400000287DD147480068002879D05BE04648D0
:10395000C068C468A06AD4E907128A60D4E9072164
:103960004A6004F1180142688A4201D1216A41602B
:103970000022A2620168491E01606069D4E9021256
:103980008A60D4E902214A60211D42688A4201D13D
:10399000E1684160002262610168491E016094F89B
:1039A0002C10012088403149096808432F490860DC
:1039B000E16A01EB81012E4A02EB81014868A060B7
:1039C0008268E260211D826851608160E16A01EBDA
:1039D0008101274A02EB81026261E16A01EB810108
:1039E000234A52F82110491CE26A02EB8202204B62
:1039F00043F822101F49E06A0968C96A884202D365
:103A000001201D4908601848006808B9012000E03D
:103A1000002000289BD00CB1FEF794FF17480568E2
:103A200065B100BFFFF7DEFD10B10120124908604B
:103A30006D1E002DF6D10020104908600E4800E0F0
:103A400009E0006838B1012630070D490860BFF36E
:103A50004F8FBFF36F8FFFF71FFA304670BD000026
:103A6000980100206C010020ECF800207401002077
:103A700060F800205C010020800100207C01002013
:103A800004ED00E01CB50024FEF73AFC074800688E
:103A900050B10748042100237822CDE9001005A188
:103AA0000648FFF755FD044620461CBDA401002032
:103AB000A8010020546D722053766300FB29000892
:103AC0008C3B0008D40200201C0003007C02002074
:103AD0001C010020803B0008680A002020003C00F8
:103AE000E402002020010020A03B0008E40B00209D
:103AF00018000F00780A002024010020943B0008E1
:103B0000E80C002008001E00F40B00202801002013
:103B1000C83B00087C0D002010000800F80C0020B5
:103B20002C010020D43B0008A00E00201000110042
:103B30008C0D002030010020B83B0008B40F00209D
:103B400010001000B00E002034010020AC3B000833
:103B5000488F002010017800C40F00203801002099
:103B6000C03A0008D43A0008E83A0008FC3A0008D5
:103B7000103B0008243B0008383B00084C3B000881
:103B80005245415353444154410000005241575F54
:103B9000504342004152505F515545554500000089
:103BA000465241475F50425546000000504255463C
:103BB0005F504F4F4C000000504255465F52454603
:103BC0002F524F4D0000000049474D505F47524F64
:103BD000555000005359535F54494D454F555400BB
:103BE000003C000800000020E40100000C03000875
:103BF000903C0008E40100206C170100480F000809
:103C000001106009010203040506070802290232B7
:103C10001113151633080413B5143308031A2908B1
:103C20003210137F173308061AAD203217134115CF
:103C300033080113CF123308051A3D18320F1AEF5B
:103C4000082972137D1359800135180F10011002D5
:103C50001003100410051006100781180D7B148E38
:103C60003F7B140E40B81E55400C2A40E60A28013E
:103C7000DB01351AAA010138021F042D01020304D9
:103C800004051106070809AC7A030A282924000054
:040000050800018965
:00000001FF
