:020000040800F2
:1000000028B2002061020008BB040008B304000805
:10001000B7040008630300086F0B0008000000002D
:10002000000000000000000000000000A101000826
:100030006703000800000000FD0100087D070008BC
:100040007B0200087B0200087B0200087B0200089C
:100050007B0200087B0200087B0200087B0200088C
:100060007B0200087B0200087B0200087B0200087C
:100070007B0200087B0200087B0200087B0200086C
:100080007B0200087B0200087B0200087B0200085C
:100090007B0200087B0200087B0200087B0200084C
:1000A0007B020008190800087B0200087B02000898
:1000B000390800087B0200087B0200087B02000868
:1000C0007B0200087B0200087B0200087B0200081C
:1000D0007B0200087B0200085D0900087B02000823
:1000E0007B0200087B0200087B0200087B020008FC
:1000F0007B0200087B0200087B0200087B020008EC
:100100007B0200087B0200087B0200087B020008DB
:100110007B0200087B020008550800087B020008EB
:100120007B0200087B0200087B0200087B020008BB
:100130007B020008A90300087B0200087B0200087C
:100140007B0200087B0200087B0200087B0200089B
:100150007B0200087B0200087B0200087B0200088B
:100160007B0200087B0200087B0200087B0200087B
:100170007B0200087B0200087B0200087B0200086B
:100180007B0200087B020008DFF810D000F0ACF81A
:10019000004800477D180008AFF3008028B2002017
:1001A0002C4B19680868B0E8F04F80F30988BFF35A
:1001B0006F8F4FF0000080F311887047000000003F
:1001C00008480068006880F308884FF0000080F35A
:1001D000148862B661B6BFF34F8FBFF36F8F00DF35
:1001E00000BF00BF08ED00E0DFF80C00016841F43B
:1001F00070010160704700BF88ED00E0EFF30980F7
:10020000BFF36F8F134B1A681EF0100F08BF20ED5D
:10021000108A20E9F04F106009B44FF0A00080F37D
:100220001188BFF34F8FBFF36F8F01F097FF4FF02F
:10023000000080F3118809BC19680868B0E8F04F25
:100240001EF0100F08BFB0EC108A80F30988BFF3CE
:100250006F8F704734010020EFF305807047000076
:100260000648804706480047FEE7FEE7FEE7FEE750
:10027000FEE7FEE7FEE7FEE7FEE7FEE7B107000860
:100280008901000810B5431A934209D283188818CF
:1002900003E010F8011D03F8011D521EF9D210BD34
:1002A00040EA01039B0703D009E008C9121F08C0F8
:1002B000042AFAD203E011F8013B00F8013B521E78
:1002C000F9D210BDD2B201E000F8012B491EFBD2D9
:1002D00070470022F6E710B513460A460446194651
:1002E000FFF7F0FF204610BD064C074D06E0E06822
:1002F00040F0010394E8070098471034AC42F6D36D
:10030000FFF746FF282900084829000870B58C1817
:1003100010F8015B15F0070301D110F8013B2A1119
:1003200006D110F8012B03E010F8016B01F8016B06
:100330005B1EF9D12B0705D40023521E0DD401F802
:10034000013BFAE710F8013BCB1A921C03E013F8CB
:10035000015B01F8015B521EF9D5A142D8D3002000
:1003600070BD00BFFEE7704701494861704700005B
:100370000090024001460868C0F30D40704700B588
:1003800002460023106800F0004058B9106800F4DD
:10039000004038B9106800F4807018B11046FFF7BB
:1003A000E9FF0346184600BD10B501E001F05EFA12
:1003B00006480068FFF7E3FF0028F7D14020FFF769
:1003C000D3FF4FF48030FFF7CFFF10BD880100202E
:1003D00072B6704762B67047F0B50A460021002336
:1003E000002400BF3DE0012505FA01F3156805EA88
:1003F00003049C4234D105684F000326BE40B54338
:10040000056015794E00B5400668354305601579DD
:10041000012D02D01579022D16D185684F000326D3
:10042000BE40B543856055794E00B540866835437A
:100430008560456801268E40B543456045689679DC
:100440008E40B6B235434560C5684F000326BE40B6
:10045000B543C560D5794E00B540C6683543C56023
:10046000491C1029BFD3F0BDF0B5002300244D076F
:10047000ED0E02FA05F3CE1000F1200555F82650D6
:100480004E07F70E0F26BE40B543CF1000F12006F1
:1004900046F82750CE1000F1200555F8265045EAC1
:1004A0000304CE1000F1200545F82640F0BD81611F
:1004B000704700BFFEE700BFFEE7704770B5002140
:1004C00000230F22C4781CB3174C246804F4E064A2
:1004D000C4F5E064C4F30721C1F10404E3B20A41A6
:1004E00044789C40E1B28478144021430C07210EEB
:1004F0000E4C05786155047804F01F050124AC40CA
:1005000005786D11AD0005F1E025C5F8004109E061
:10051000047804F01F050124AC40054D06787611DF
:1005200045F8264070BD00000CED00E000E400E05E
:1005300080E100E002490143024A11607047000077
:100540000000FA050CED00E029B1064A12680243EA
:10055000044B1A6004E0034A12688243014B1A609C
:10056000704700003038024029B1064A1268024341
:10057000044B1A6004E0034A12688243014B1A607C
:10058000704700004038024029B1064A1268024311
:10059000044B1A6004E0034A12688243014B1A605C
:1005A0007047000044380240F0B5002100220024CA
:1005B000022500260223324F3F6807F00C0121B1CB
:1005C000042905D0082937D105E02E4F076036E011
:1005D0002D4F076033E02A4F3F1F3F68C7F3805617
:1005E000274F3F1F3F6807F03F036EB1264FB7FB11
:1005F000F3F7DFF88CC0ACF1040CDCF800C0CCF3EE
:10060000881C07FB0CF40CE01E4FB7FBF3F7DFF878
:1006100070C0ACF1040CDCF800C0CCF3881C07FB04
:100620000CF4174F3F1F3F68C7F301477F1C7D0045
:10063000B4FBF5F7076002E0124F076000BF00BF90
:100640000F4F3F6807F0F0010909104F7A5C076807
:10065000D74047600A4F3F6807F4E051890A0B4FC3
:100660007A5C4768D7408760054F3F6807F4604170
:10067000490B064F7A5C4768D740C760F0BD000061
:10068000083802400024F40040787D017401002005
:100690000CB50020019000903448006840F4803090
:1006A0003249086000BF3148006800F40030009013
:1006B0000198401C0190009818B90198B0F5A04F1E
:1006C000F1D12A48006800F4003010B101200090F8
:1006D00001E0002000900098012846D123484030D6
:1006E000006840F08050214940310860204800688F
:1006F00040F440401E4908601C48083000681B490F
:10070000083108600846006840F400400860084668
:10071000006840F4A05008601648091F0860081FD0
:10072000006840F08070091F086000BF0F48006833
:1007300000F000700028F9D040F205700E49086002
:100740000A480830006820F00300084908310860B2
:100750000846006840F00200086000BF0348083007
:10076000006800F00C000828F8D10CBD00380240E9
:100770000070004019544007003C024010B500BF13
:10078000A02080F31188BFF34F8FBFF36F8F00BF9E
:1007900001F05CFE18B14FF080500449086000BFC2
:1007A000002080F3118800BF10BD000004ED00E0C0
:1007B00010B51548006840F47000134908601348EC
:1007C000006840F001001149086000200F4908311D
:1007D00008600E4800680E4908400C4908600D4842
:1007E000091D0860081F006820F48020091F0860A8
:1007F000002006490C310860FFF74AFF4FF0006007
:1008000001498039086010BD88ED00E000380240E1
:10081000FFFFF6FE1030002410B50121054800F05E
:100820003EF8012805D10121024800F029F800F026
:10083000E3F910BD0000014010B50121880700F068
:100840002EF8012805D101F09FFB0121880700F057
:1008500017F810BD10B50121074800F020F8012855
:1008600008D1064800680A3004490860012102489E
:1008700000F006F810BD0000001000400401002048
:10088000CA430282704721B1028842F0010202800D
:1008900004E002884FF6FE731A400280704730B5BC
:1008A0000246002000230024158A05EA01039589E9
:1008B00005EA010413B10CB1012000E0002030BDB5
:1008C0001AB183890B43838102E083898B4383813F
:1008D000704741627047000000220288184B98421E
:1008E0000ED0184B98420BD0B0F1804F08D0164B69
:1008F000984205D0154B984202D0154B984204D12E
:100900004FF68F731A404B881A43124B984207D008
:10091000114B984204D04FF6FF431A400B891A43FB
:1009200002804B68C3620B880385054B984202D056
:10093000044B984201D18B7A03860123838270474E
:100940000000014000040140000400400008004095
:10095000000C0040001000400014004010B540F2B0
:100960002551134800F041F830B101F0FDFA40F292
:1009700025510F4800F01EF84FF458710C4800F054
:1009800034F830B101F0F0FA4FF45871084800F033
:1009900011F840F22661064800F027F830B101F066
:1009A000EBFA40F22661024800F004F810BD0000A6
:1009B0000044004010B50022002340F66A14A14212
:1009C00000D100BF0A1201249440A3B2DC4304808A
:1009D00010BD21B1828942F40052828104E08289F3
:1009E0004DF6FF731A408281704770B502460024AD
:1009F00000230025002040F66A16B14200D100BF56
:100A0000C1F3421501F01F03012606FA03F3012D7D
:100A100002D19689334006E0022D02D1168A334076
:100A200001E0968A33400C12012606FA04F4168877
:100A3000344013B10CB1012000E0002070BDF0B5CE
:100A40000346002400260025002040F66A17B9421C
:100A500000D100BF1846C1F3421401F01F06012760
:100A600007FA06F5012C01D10C3004E0022C01D16B
:100A7000103000E014301AB107682F43076002E01D
:100A80000768AF430760F0BD2DE9FF4705460E46F6
:100A90000024A14600BFA046B08900B100BF2C8A47
:100AA00024F44054F08804432C82AC8941F20C6059
:100AB0008443B08831890843718908430443AC8179
:100AC000AC8A24F44074B0890443AC826846FFF7D2
:100AD0006BFD2048854202D01F48854202D1DDF8D7
:100AE0000C9001E0DDF80890A88900F4004040B1C6
:100AF00009EBC90000EB091031684900B0FBF1F7C0
:100B000007E009EBC90000EB091031688900B0FB70
:100B1000F1F76420B7FBF0F004012009642101FB28
:100B20001078A88900F4004040B1322000EBC800E2
:100B3000B0FBF1F000F00700044308E0322000EBC6
:100B400008106421B0FBF1F000F00F0004432C8189
:100B5000BDE8FF870010014000140140014688886D
:100B6000C0F308007047C1F308028280704700BFDD
:100B7000FEE702E008C8121F08C1002AFAD1704738
:100B80007047002001E001C1121F002AFBD170470D
:100B90007FB505460C4601210846FFF7F5FC00200D
:100BA000ADF80C00681E80B2ADF80400601E029023
:100BB0000020ADF806008DF80E0001A90D48FFF7E2
:100BC0008BFE012211460B48FFF77AFE01210948EE
:100BD000FFF759FE19208DF8000001208DF8030061
:100BE00003208DF8010000208DF802006846FFF711
:100BF00065FC7FBD000001400448006820B1034847
:100C00000068401E01490860704700000000002095
:100C100010B50A4600BF00BF114643681B895B1E22
:100C20004468238103691B680B600369196010BD68
:100C3000014608690268AAB110680B69186000BF14
:100C400000BF48680089401C4B68188148680089CB
:100C50004B685B89984203DD486800894B6858817E
:100C60001046704748688088401C4B689880002078
:100C7000F7E7000010B5002406480078012806D1E7
:100C800005480068804700200249087000E00624FB
:100C9000204610BD060000200C0000202DE9F05F6A
:100CA00006460D464FF0000B2888052848D170787D
:100CB0004FEA0029B07840EA090909F101001FFA5A
:100CC00080F9F078040230790443012C35DBB4F567
:100CD000FA6F32DA374600202880012007F8010B2E
:100CE0002888401C288004F0070040B12046E11706
:100CF00004EB5171C910491C01F0FF0805E02046C2
:100D0000E11704EB5171C1F3C70807F8018B28887C
:100D1000401C2880002322464946384600F028FC23
:100D20008246BAF1000F04D0504601F00BF9834619
:100D300008E028884044288004E04FF0030B01E0DD
:100D40004FF0030B5846BDE8F09F2DE9F05F0646D3
:100D50000D464FF0000B2888052847D170784FEAE0
:100D60000029B07840EA090909F101001FFA80F969
:100D7000F078040230790443012C34DBB4F5FA6FC7
:100D800031DA374600202880022007F8010B288836
:100D9000401C288004F0070040B12046E11704EB16
:100DA0005171C910491C01F0FF0805E02046E11708
:100DB00004EB5171C1F3C70807F8018B2888401C68
:100DC000288022464946384600F01EFC8246BAF189
:100DD000000F04D0504601F0B5F8834608E028889B
:100DE0004044288004E04FF0030B01E04FF0030B78
:100DF0005846BDE8F09F2DE9F04705460C464FF0F8
:100E0000000A2088052837D168784FEA0028A8789A
:100E100040EA080808F101001FFA80F8E8780602A5
:100E20002E79012E25DB7D2E23DC2F46002020800D
:100E3000032007F8010B2088401C20807006000E5C
:100E400007F8010B2088401C2080002332464146D1
:100E5000384600F009FC8146B9F1000F04D048463D
:100E600001F070F8824609E0208800EB46002080FF
:100E700004E04FF0030A01E04FF0030A5046BDE8DA
:100E8000F0872DE9F04705460C464FF0000A208810
:100E9000052837D168784FEA0028A87840EA080882
:100EA00008F101001FFA80F8E87806022879064365
:100EB000012E24DB7D2E22DA2F4600202080042004
:100EC00007F8010B2088401C20807006000E07F8F0
:100ED000010B2088401C208032464146384600F0F5
:100EE00003FC8146B9F1000F04D0484601F02AF80E
:100EF000824609E0208800EB4600208004E04FF0A5
:100F0000030A01E04FF0030A5046BDE8F0872DE9DF
:100F1000FC5F04460D460020009028880A285DDB0F
:100F200060784FEA002AA07840EA0A0A0AF1010034
:100F30001FFA80FAE07806022079064360794FEACA
:100F4000002BA07940EA0B0B0BF101001FFA80FB8C
:100F5000E0790702207A0743607A0190012E3BDB9B
:100F60007D2E39DC012F37DB792F35DC79000198B4
:100F7000814231D101233A46594604F10A0000F07A
:100F800073FB8146B9F1000F1ED1A04600202880D6
:100F9000172008F8010B2888401C28807006000ED6
:100FA00008F8010B2888401C28800023324651464F
:100FB000404600F059FB8146B9F1000F04D1288862
:100FC000022101FB06002880B9F1000F06D0484637
:100FD00000F0B8FF009001E0032000900098BDE809
:100FE000FC9F000070B505460C460648028806497D
:100FF000681CFFF747F903480088401C2080002048
:1010000070BD0000F0000020F80200202DE9F84338
:1010100004460F464FF000083888052829D160782B
:101020000502A0780543681C85B22079F0B9E07804
:10103000FF2801D0E078C8B900208DF80100E078E1
:10104000FF2803D101208DF8000002E000208DF878
:10105000000001231A462946684600F089FA064630
:101060004EB1304600F06EFF804604E04FF00308BA
:1010700001E04FF003084046BDE8F8832DE9F04158
:1010800004460F464FF000083888052812D16078D2
:101090000502A0780543681C85B201231A4629463B
:1010A000E01C00F0E1FA064636B1304600F04AFF97
:1010B000804601E04FF003084046BDE8F0812DE98D
:1010C000F05F05460E464FF0000B3088052839DDED
:1010D00068780702A8780743781C87B2E87804028A
:1010E0002879044395F805A004F0070040B1204694
:1010F000E11704EB5171C910491C01F0FF0805E02C
:101100002046E11704EB5171C1F3C708012C16DB2F
:10111000B4F5F66F13DCD04511D1012322463946D0
:10112000A81D00F025FA8146B9F1000F04D0484609
:1011300000F008FF834607E00520308004E04FF010
:10114000030B01E04FF0030B5846BDE8F09F2DE97B
:10115000F04704460E464FF0000A3088062828DB88
:1011600060780702A0780743781C87B2E078050210
:101170002079054394F80590012D17DB782D15DCB7
:101180006806000E484511D101232A463946A01DA4
:1011900000F06AFA8046B8F1000F04D0404600F033
:1011A000D1FE824607E00520308004E04FF0030ABC
:1011B00001E04FF0030A5046BDE8F0872DE9F04703
:1011C00005460C4616461F46DDF820904FF00008F5
:1011D0001CB1012C01DBF72C02DD4FF0020835E0D9
:1011E0001C48047005BB1C481C4908601C481D496C
:1011F00008601D481D4908601D481E490860002000
:101200001D4908601D481E4908601E481E490860A7
:101210001E481F4908604B463A4631460D48007843
:1012200000F0D8F8804602E04FF0020800BF00BF8F
:10123000B8F1000F0AD100F0E9FF10B94FF0030830
:1012400004E0144805700120134908704046BDE8C9
:10125000F087000004000020351500080C00002075
:10126000591500081000002085140008080000200F
:101270002D14000814000020180000208D22000802
:101280001C00002055230008200000201523000822
:1012900024000020050000200600002038B50025AD
:1012A0004148007808B1062038BD684600F09CFF30
:1012B000012877D19DF8000030B1012805D002281F
:1012C00018D003286DD16BE06BE0384A38493948B3
:1012D000394B1B68984705465DB936480078374951
:1012E0000978884202D03348007810B9022000F013
:1012F00095FF56E02E4800680078314908700120BB
:1013000030490870002417E02F4810F8340000B965
:1013100014E02D4810F834002949097888420AD190
:10132000294800EBC40021494268214800689047E1
:101330002449087002E0641C102CE5DB00BF1D4846
:10134000007858B31F480078C8B1002017490880BA
:101350001B48007840F08001144802880088401C37
:10136000124B1880124800688154164802781846BB
:1013700001880088401C18800D48006842541348BA
:101380000078012800D100BF084802880848016899
:101390000A4800780E4B1B689847054601E001E0BB
:1013A00000BF00BF00207FE706000020B60000203D
:1013B000B0000020B4000020140000200400002031
:1013C000B5000020B80000203000002005000020FB
:1013D000080000202DE9F04781460E4614461F46BE
:1013E0004FF00008FEF7F4FF3B4608222146304646
:1013F00000F02AFF012802D04FF003080FE0B4F5F7
:10140000964F01D9232503E060000749B1FBF0F5B1
:10141000A8B200F031FF012801D04FF00308FEF719
:10142000D9FF4046BDE8F087A07F17002DE9F041C5
:1014300004460D4616464FF000080027FEF7C8FF89
:101440000E480088042812DB0C4801880C4800F084
:101450001DFE60B90A480078207008480088C01E48
:1014600030800748401C28604FF0010800E0052745
:10147000FEF7B0FF3846BDE8F0810000EE00002026
:10148000F80100202DE9F04105460E4617464FF0C1
:101490000008FEF79DFF22480078012838D1701E11
:1014A000204908600120204908801E480068057016
:1014B00008460088384408800846018819480068B2
:1014C00000F0E4FD044618490888411C164B1980B9
:1014D00016490C54221219460888411C19801349D8
:1014E0000A540120124908700E490968087800F072
:1014F000B9FE0C480068401C0A4908600A48008888
:10150000401E094908800121002000F0DBFD01E0B8
:101510004FF00508FEF75EFF4046BDE8F081000091
:10152000E5000020E8000020EC000020F801002089
:10153000E400002010B5FEF74BFF002005490870BD
:101540000021012000F0BEFD00F0F3FDFEF742FF98
:1015500010BD0000E500002010B5FEF739FF0021A6
:10156000084600F0AFFD00F0CFFDFEF733FF10BDE1
:101570002DE9F04705460E46904699464FF0000A81
:101580000FFA88F430B2002836DB06EB080010288A
:1015900032DC304607B2B9F1000F03D0B9F1010FC8
:1015A00029D115E011E0082C01DD082000E02046DB
:1015B000C2B2B9B2134800F003FF05F8010BA4F161
:1015C000080004B207F1080007B2002CEBDC12E0BF
:1015D0000EE015F8013B082C01DD082000E0204654
:1015E000C2B2B9B2074800F000FFA4F1080004B28B
:1015F000002CEEDC00BF01E04FF0010A5046BDE8D0
:10160000F0870000DE0000202DE9F04705460C467B
:1016100016464FF0000937B220B200281CDBA01993
:10162000102819DC20461FFA80F812E0082F01DD8F
:10163000082000E03846C2B241460A4800F0C0FE29
:1016400005F8010BA7F1080007B208F108001FFA1E
:1016500080F8002FEADC01E04FF001094846BDE8C0
:10166000F0870000E0000020F0B504460D460020A1
:101670006E1EB5B2002D30DBAE18082E2DDC184ED4
:101680003688A91B13B1012B26D111E00DE0154EB0
:1016900036F81160361204F8016B124E16F811601C
:1016A00004F8016B491C561EB2B2002AEFDC13E0AD
:1016B00010E014F8017B3E020A4F27F8116014F87D
:1016C000016B37F811703E43064F27F81160491C33
:1016D000561EB2B2002AECDC00E00120F0BD000092
:1016E000DC000020CC00002030B50346002000299B
:1016F00017DB8D18082D14DC0B4D2D884C1B0DE0CD
:101700000A4D35F814502D1203F8015B074D15F8FA
:10171000145003F8015B641C551EAAB2002AEFDCCA
:1017200000E0012030BD0000CA000020BA00002007
:101730001EB500210022009201920292214A1268F5
:10174000126802F0004282B1002200921E4A5269E1
:1017500002F0800222B180221B4B5A6100229A6063
:101760009DE81C0080E81C001EBD164A1268126825
:1017700002F40042B2B9134A1268126802F480728D
:1017800082B1104A1268126802F4007252B10D4A16
:1017900012681268C2F30D42111F0A4A1268926859
:1017A000019200E000210091064A12680292054A67
:1017B0001268D268034B1A609DE81C0080E81C0088
:1017C00000BFD1E7880100200090024070B50446B8
:1017D000204600F011F8064616B94FF0FF3070BDF4
:1017E000214630462269904705461DB1304600F03B
:1017F000EFFA00262846F2E72DE9F04387B081464C
:101800000026002501A8FFF793FF01A807C804AB35
:1018100007C3049887B2DDF814804FF4C1723946CB
:10182000002000F025FA054665B12C4608E06289E3
:1018300008EB06016068FEF725FD60890644246810
:10184000002CF4D14FF0004006990860064840692A
:1018500000F0800020B180200349486100208860AA
:10186000284607B0BDE8F0830090024010B502485A
:10187000FFF7ACFF10BD00003003002008B54FF4A7
:101880004070FEF757FE4FF47A71A820FFF780F9F9
:1018900000F0CEF900204FF41653024601210090CB
:1018A000FFF78CFCFFF7E6F901E0FFF7F7FCFCE738
:1018B00070B5054605B970BD05F0030060B100BF05
:1018C00000BF00BF2E48B0F8D000401C81B22C48A9
:1018D000A0F8D01000BFEEE7A5F108042948006881
:1018E000844205D305F10C002749096888420CD9C8
:1018F00000BF00BF00BF2248B0F8D000401C81B23A
:101900001F48A0F8D01000BFD5E7207960B900BF0C
:1019100000BF00BF1A48B0F8D000401C81B2184880
:10192000A0F8D01000BFC6E7204600F031F860B93B
:1019300000BF00BF00BF1248B0F8D000401C81B209
:101940000F48A0F8D01000BFB5E7002020710F4865
:101950000068844201D20D48046020880949098842
:10196000611A411A0648B0F8CC00401A81B2044806
:10197000A0F8CC10204600F07FFA00BF9BE70000E3
:1019800058900020080100200C01002010010020C8
:101990002DE9F0410446204600F0E8F8054620888D
:1019A00000F0FAFA0646608800F0F6FA074620884A
:1019B000B0F5205F10D86088B0F5205F0CD8608843
:1019C000A84202D03888A84206D10648006886425C
:1019D00005D07088A84202D00020BDE8F081012027
:1019E000FBE700000C0100202DE9F0478046B8F12C
:1019F000000F02D10020BDE8F08708F1030020F0BD
:101A0000030085B20C2D00D20C25B5F5205F01D85E
:101A1000454501DA0020EEE75148006800F0A6F8DD
:101A200006468DE0304600F0B7FA044620790028DB
:101A30007ED1218806F10800081AA8427CD32188AB
:101A400006F10800091A05F11400814233D306F1AA
:101A5000080028441FFA80F900BF00BF484600F084
:101A60009BFA074600213971218839807E80A4F8CD
:101A70000090012020713888B0F5205F04D03888AC
:101A800000F08AFAA0F8029000BF3648B0F8CC10F7
:101A900005F10800084481B23248A0F8CC10B0F833
:101AA000CE10B0F8CC00814204DA2E48B0F8CC1049
:101AB000A0F8CE101BE00120207100BF204600F0EE
:101AC00055F82849B1F8CC1022881144081A81B27F
:101AD0002448A0F8CC10B0F8CE10B0F8CC00814269
:101AE00004DA2048B0F8CC10A0F8CE1000BF1C4893
:101AF0000068844215D11A48D0F800A004E0BAF872
:101B0000000000F049FA82469AF8040018B116481D
:101B100000688245F3D11248C0F800A000BF00BFA2
:101B200000BF00BF00BF00BF00BF00BF00BF00E09C
:101B300002E004F108005EE7304600F02DFA068866
:101B4000C5F52050B0423FF66DAF0648B0F8C8006A
:101B5000401C81B20348A0F8C81000204BE70000E9
:101B600010010020589000200C010020014602487E
:101B70000088081A80B270470801002070B504463A
:101B80000D4600BF082C00DB70BD00BF05B9FBE7A8
:101B9000034951F824002946FFF73AF800BFF3E75C
:101BA000A828000870B5044600BF082C01DB0020FF
:101BB00070BD00BF034951F82400FFF739F805460E
:101BC0002846F5E7A82800087FB505460C46012100
:101BD0000846FEF7C9FC0020ADF80C00681E80B274
:101BE000ADF80400601E02900020ADF806008DF8EC
:101BF0000E0001A94FF08040FEF76EFE0122114653
:101C00009007FEF75DFE01218807FEF73CFE1C20D1
:101C10008DF8000001208DF8030003208DF80100ED
:101C200000208DF802006846FEF748FC7FBD0000EA
:101C30001CB501211020FEF787FC01208DF804005F
:101C400000208DF806004FF40050009001208DF820
:101C5000070003208DF8050069460448FEF7BCFB29
:101C60004FF400510148FEF722FC1CBD0010024059
:101C70002DE9FE4F82460D4690465746B8F1010FBA
:101C80000AD0B8F1410F06D0B8F5C17F0BD0B8F536
:101C9000207F7CD14AE000BF42462946002000F068
:101CA0007DF8044677E0002400200290A94600BF9A
:101CB0000720FFF777FF064636B914B1204600F03B
:101CC00087F80020BDE8FE8FF81C20F00300C0F567
:101CD000807080B2484501DD484605E0F81C20F0E0
:101CE0000300C0F5807080B283460020CDE90080FB
:101CF00006F110003844C01C20F003015B464A4640
:101D0000304600F0AAF800BF00BF00BF00BF0CB90A
:101D1000344601E0029806600296A9EB0B001FFA18
:101D200080F90027B9F1000FC2DC34E0F81C20F084
:101D30000301E81C20F00300084486B206F11000FD
:101D40001FFA80F9E81C20F00300B04204D8E81C18
:101D500020F00300484501D90020B3E74846FFF7CB
:101D600043FE04460CB90020ACE70020CDE900801A
:101D700004F110003844C01C20F003012B462A4611
:101D8000204600F06AF800BF00BF04E0FFE700BF94
:101D900000BF002096E700BF204693E72DE9FC41F5
:101DA00006460C46174600BF00BF0620FFF7FAFEA6
:101DB000054615B90020BDE8FC81002023462246D7
:101DC0003146CDE90070284600F047F82846F2E792
:101DD0002DE9F047044624B900BF00BF0020BDE84C
:101DE000F087002635E000BF00BFA07B401E00F05A
:101DF000FF0884F80E80B8F1000F28D12768207BF7
:101E000000F00F05607B00F0020038B1A14600BF72
:101E100000BF2046D9F81010884714E0022D04D1E5
:101E200021460720FFF7AAFE0DE0012D04D121462F
:101E30000620FFF7A3FE06E01DB92046FFF738FD98
:101E400001E000BF00BF701CC6B23C4600E00024A9
:101E500000BF002CC7D13046C1E770B5DDE90445AD
:101E600000260660416002814381047345730126A8
:101E700086730026C67370BD2DE9F041044600BF8D
:101E800000BF00BF00BF00BF00BF00BF00BF208871
:101E900000F082F80546AC4219D02879B8B91B4841
:101EA0000068854213D01A480068A84201D118483A
:101EB0000460288820802888B0F5205F07D020465D
:101EC000FFF754FE0746288800F066F847806088D0
:101ED00000F062F80646A64215D0307998B90C4851
:101EE0000068A04201D10A4806602088308020881E
:101EF000B0F5205F07D03046FFF738FE0746208850
:101F000000F04AF84780BDE8F08100000C01002095
:101F10001001002009480068006808B9012000E0AD
:101F2000002020B14FF0FF300549086005E003486C
:101F30000068C068006802490860704738010020E6
:101F400064010020014621B1012904D0072906D1EE
:101F500003E0002005E0022003E0062001E0042069
:101F600000BF00BF7047000010B5024800688047FE
:101F700010BD00001C00002010B50248006880471A
:101F800010BD00002000002010B502480068804706
:101F900010BD0000240000200146024800680844EB
:101FA000704700000801002010B588B004460220E8
:101FB0008DF81C008DF81D0000208DF81E000120FA
:101FC0008DF81F0001210820FEF7BEFA0722052127
:101FD0002448FEF749FA2020069006A92148FEF77A
:101FE000FBF901210820FEF7AFFA072206211D4860
:101FF000FEF73AFA4020069006A91A48FEF7ECF9D7
:1020000001214804FEF7B0FA02940020ADF80C005C
:10201000ADF80E00ADF81000ADF814000C20ADF8CE
:10202000120002A91048FEF72FFD26208DF80400AB
:1020300001208DF8050000208DF8060001208DF8A4
:10204000070001A8FEF73AFA01210748FEF7C1FC94
:10205000FF2000F00DF864210448FEF73AF908B0BB
:1020600010BD0000000C024000440040940100201C
:102070000549088000BF0449091F098801F0400193
:102080000029F8D0704700000444004070B50246B3
:102090000C46FF25FF2309E012F8010B80EA03013B
:1020A0000648405C80EA05030548455C201EA4F113
:1020B0000106B4B2F0D143EA052070BD082600083D
:1020C0000827000870B505460C4635B1012240F2DC
:1020D00025510C48FEF7B3FC05E0002240F22551E3
:1020E0000848FEF7ACFC34B1012240F226610548F5
:1020F000FEF7A5FC05E0002240F226610148FEF74C
:102100009EFC70BD0044004010B501218807FEF719
:10211000B7FB002201218807FEF7D2FB00214FF018
:102120008040FEF7D6FB00214FF08040FEF7ABFB6E
:1021300010BD10B501218807FEF7A2FB0122114650
:102140009007FEF7BDFB00214FF08040FEF7C1FB7A
:1021500001218807FEF797FB10BD00001D480068AD
:1021600018B101201C49086032E000201A490860BB
:102170001A480068B0FA80F0C0F11F0101EB81003D
:10218000174A52F8200008B1012000E0002050B9A1
:1021900000BFA02080F31188BFF34F8FBFF36F8F74
:1021A00000BF00BFFEE701EB81020D4B03EB820095
:1021B00042685268426000F108024368934202D1CB
:1021C0004268526842604268D268064B1A6000BF9B
:1021D0007047000070010020580100204C010020D1
:1021E000609100203401002001460020054A127849
:1021F00032B1054A12780A700022024B1A7001208F
:1022000070470000E3000020E200002000200249A7
:102210000870012070470000E30000200146012003
:10222000024A10700248017001207047E30000204C
:10223000E200002010B504460248FEF78FFC207033
:10224000012010BD004400402DE9F04106460C4637
:102250001746984601252046FFF7A6FE2846BDE80A
:10226000F081000010B5044621460248FEF77BFCD1
:10227000012010BD0044004070B5044601252146F0
:1022800041F26800FFF7A0FC284670BD38B5002475
:102290006846FFF7CFFF1C48007830B101280AD00C
:1022A000022819D003282BD102E0FFF742FF27E0D4
:1022B000FFF73FFF24E00020144908809DF800202C
:1022C0000888411C114B198011490A5402200E49FB
:1022D0000870FFF72EFF13E00C480088FF2809DC88
:1022E0009DF8002009490888411C084B19800849BD
:1022F0000A5402E0032004490870FFF71AFF00BFE8
:1023000000BF204638BD0000E5000020EE000020A0
:10231000F801002010B500240D48007820B10228F3
:1023200007D003280BD109E00020FFF777FF044610
:1023300006E00120FFF772FF044601E000E000BF65
:1023400000BFFFF7E1FE012001490870204610BDE3
:10235000E500002010B500241648007810B10128CF
:1023600024D104E000210120FFF7ACFE1EE012485A
:10237000008878B1114909680878FFF773FF0F48A2
:102380000068401C0D4908600B480088401E0A493F
:1023900008800AE00320FFF741FF044600210120E6
:1023A000FFF790FE00200349087000BF00BF2046E1
:1023B00010BD0000E4000020EC000020E800002038
:1023C000F0B503460C461546E208A4EBC20087B2FE
:1023D0000120A840401E86B2995C501C185C41EA5E
:1023E000002139413140C8B2F0BD2DE9F043044627
:1023F00015461F46C808A1EBC0081FFA88FC07FA5B
:102400000CF81FFA88F74FF0010808FA05F8A8F150
:1024100001081FFA88F6A1EBC00806FA08F81FFAAF
:1024200088F6225C00F1010814F8088042EA0822CC
:1024300022EA060848EA070222544FEA222900F15C
:10244000010804F80890BDE8F08300002DE9F04190
:102450004FF000086148006800287DD1604800689E
:10246000451C5F48056015BB5E480068006808B9F8
:10247000012000E0002050B900BFA02080F31188A7
:10248000BFF34F8FBFF36F8F00BF00BFFEE755480C
:102490000768554800685349086053480760534827
:1024A0000068401C51490860FFF734FD00BF5048E8
:1024B0000068854277D300BF4A480068006808B9C1
:1024C000012000E0002020B14FF0FF3048490860B3
:1024D00068E044480068C068C4686668B54202D2D3
:1024E000434806605EE06069D4E902128A60D4E97C
:1024F00002214A60211D42688A4201D1E16841609F
:10250000002262610168491E0160A06A98B1A06A58
:10251000D4E907128A60D4E907214A6004F118015E
:1025200042688A4201D1216A41600022A2620168A8
:10253000491E016000BF94F82C10012088402D49ED
:10254000096808432B490860E16A01EB81012A4AC6
:1025500002EB8101486800E037E0A0608268E26039
:10256000211D826851608160E16A01EB8101224A8C
:1025700002EB81026261E16A01EB81011E4A52F8BD
:102580002110491CE26A02EB82021B4B43F8221025
:102590001A49E06A0968C96A88428DD94FF0010872
:1025A0008AE700E000BF15480068C06A00EB8000C1
:1025B000114951F82000012801D94FF001081048B5
:1025C000006808B14FF0010804E00E480068401CA4
:1025D0000C4908604046BDE8F08100007001002011
:1025E00048010020380100203C0100205C0100204F
:1025F000640100204C010020609100203401002083
:10260000580100205401002000C1814001C08041D8
:1026100001C0804100C1814001C0804100C18140B2
:1026200000C1814001C0804101C0804100C18140A2
:1026300000C1814001C0804100C1814001C0804192
:1026400001C0804100C1814001C0804100C1814082
:1026500000C1814001C0804100C1814001C0804172
:1026600001C0804100C1814000C1814001C0804162
:1026700001C0804100C1814001C0804100C1814052
:1026800000C1814001C0804101C0804100C1814042
:1026900000C1814001C0804100C1814001C0804132
:1026A00001C0804100C1814000C1814001C0804122
:1026B00001C0804100C1814001C0804100C1814012
:1026C00000C1814001C0804100C1814001C0804102
:1026D00001C0804100C1814001C0804100C18140F2
:1026E00000C1814001C0804101C0804100C18140E2
:1026F00000C1814001C0804100C1814001C08041D2
:1027000001C0804100C1814000C0C101C30302C2B9
:10271000C60607C705C5C404CC0C0DCD0FCFCE0E21
:102720000ACACB0BC90908C8D81819D91BDBDA1A91
:102730001EDEDF1FDD1D1CDC14D4D515D71716D601
:10274000D21213D311D1D010F03031F133F3F23271
:1027500036F6F737F53534F43CFCFD3DFF3F3EFEE1
:10276000FA3A3BFB39F9F83828E8E929EB2B2AEA51
:10277000EE2E2FEF2DEDEC2CE42425E527E7E626C1
:1027800022E2E323E12120E0A06061A163A3A26231
:1027900066A6A767A56564A46CACAD6DAF6F6EAEA1
:1027A000AA6A6BAB69A9A86878B8B979BB7B7ABA11
:1027B000BE7E7FBF7DBDBC7CB47475B577B7B67681
:1027C00072B2B373B17170B05090915193535292F1
:1027D00096565797559594549C5C5D9D5F9F9E5E61
:1027E0005A9A9B5B99595898884849894B8B8A4AD1
:1027F0004E8E8F4F8D4D4C8C448485458747468641
:102800008242438341818040D4280008D4030020C1
:102810001C0003007C03002014010020C8280008CD
:10282000680B002020003C00E40300201801002079
:10283000E8280008E40C002018000F00780B0020A6
:102840001C010020DC280008E80D002008001E0004
:10285000F40C002020010020102900087C0E00202C
:1028600010000800F80D0020240100201C29000899
:10287000A00F0020100011008C0E00202801002065
:1028800000290008B410002010001000B00F002034
:102890002C010020F4280008489000201001780046
:1028A000C410002030010020082800081C2800085F
:1028B0003028000844280008582800086C28000820
:1028C000802800089428000852454153534441543D
:1028D000410000005241575F504342004152505F57
:1028E0005155455545000000465241475F504255FD
:1028F00046000000504255465F504F4F4C000000CC
:10290000504255465F5245462F524F4D0000000041
:1029100049474D505F47524F555000005359535F40
:1029200054494D454F5554004829000800000020E7
:10293000940100000C030008C02900089401002045
:1029400094B00000820B000861022902321113E5E5
:102950000F33080413830E33080313F70D330810E5
:10296000134F11330806137D103308171A0F28323E
:1029700001139D0C3308051A0D18320F1ABF0829D0
:10298000721A4B38013B180F10011002100310048B
:1029900010051006100781180D7B148E3F7B140E56
:1029A00040B81E55400C22400C28010201DB016199
:1029B000B2042D01020304040510060708090000F3
:040000050800018965
:00000001FF
